:020000040800F2
:100000000000082081600108450B00084B0B000828
:10001000510B0008570B00085D0B000800000000A2
:10002000000000000000000000000000F14900088E
:10003000630B000800000000F14B0008594C000859
:10004000D1600108D1600108D1600108D1600108C8
:10005000D1600108D1600108D1600108D1600108B8
:10006000D1600108D1600108D1600108D1600108A8
:10007000D1600108D1600108D1600108D160010898
:10008000D1600108D1600108D1600108D160010888
:10009000D1600108D1600108D1600108D160010878
:1000A000D1600108710B0008D1600108D16001081E
:1000B000D1600108D1600108D1600108D160010858
:1000C000D1600108D1600108D1600108D160010848
:1000D000D1600108D1600108D1600108D160010838
:1000E000850B0008D1600108D1600108D1600108CA
:1000F000D1600108D1600108D1600108D160010818
:10010000D1600108D1600108D1600108D160010807
:10011000D1600108D1600108D1600108D1600108F7
:10012000D1600108D1600108D1600108D1600108E7
:10013000D1600108F90B0008D1600108D160010805
:10014000D1600108D1600108D1600108D1600108C7
:10015000D1600108D1600108D1600108D1600108B7
:10016000D1600108D1600108D1600108D1600108A7
:10017000D1600108D1600108D160010800000000D1
:10018000D1600108D1600108D1600108D160010887
:10019000D1600108D1600108D1600108D160010877
:1001A000D1600108D1600108D1600108D160010867
:1001B000D1600108D1600108D1600108D160010857
:1001C000D1600108D160010800000000D160010881
:1001D000D1600108D1600108D1600108D160010837
:1001E000D1600108D1600108D1600108D160010827
:0801F000D1600108D160010893
:1002000010B5054C237833B9044B13B10448AFF350
:1002100000800123237010BD80000020000000003A
:100220006475010808B5034B1BB103490348AFF3DC
:10023000008008BD000000008400002064750108F3
:1002400001F0FF01102A2BDB10F0070F08D010F887
:10025000013B013A8B422DD010F0070F42B3F6D18B
:10026000F0B441EA012141EA014122F007047FF0A4
:1002700000070023F0E80256083C85EA010586EAFB
:10028000010685FA47F5A3FA87F586FA47F6A5FA37
:1002900087F68EB9EED1F0BC01F0FF0102F0070243
:1002A00032B110F8013B013A83EA010313B1F8D1EE
:1002B0000020704701387047002D06BF35460338CF
:1002C000073815F0010F07D1013015F4807F02BF08
:1002D000013015F4C03F0130F0BC0138704700BF59
:1002E00053B94AB9002908BF00281CBF4FF0FF319D
:1002F0004FF0FF3000F07AB9ADF1080C6DE904CE93
:1003000000F006F8DDF804E0DDE9022304B07047F0
:100310002DE9F0478C460D460446089E002B51D12E
:100320008A4217466DD9B2FA82FEBEF1000F0BD099
:10033000CEF1200C01FA0EF520FA0CFC02FA0EF7B1
:100340004CEA050C00FA0EF44FEA174A250CBCFBE8
:10035000FAF81FFA87F90AFB18CC45EA0C4508FBA6
:1003600009F3AB420AD9ED1908F1FF3280F023817D
:10037000AB4240F22081A8F102083D44ED1AA4B23C
:10038000B5FBFAF00AFB105544EA054400FB09F9F5
:10039000A14509D9E41900F1FF3380F00A81A14594
:1003A00040F2078102383C44A4EB090440EA0840CB
:1003B0000021002E61D024FA0EF400233460736013
:1003C000BDE8F0878B4207D9002E54D0002186E883
:1003D00021000846BDE8F087B3FA83F1002940F018
:1003E0008E80AB4202D3824200F2FA80841A65EB1F
:1003F00003050120AC46002E3FD086E81010BDE872
:10040000F08712B90127B7FBF2F7B7FA87FEBEF102
:10041000000F34D1EB1B3A0C1FFA87FC0121B3FB10
:10042000F2F8250C02FB183345EA03450CFB08F3F0
:10043000AB4207D9ED1908F1FF3002D2AB4200F20E
:10044000D1808046ED1AA3B2B5FBF2F002FB105545
:1004500043EA05440CFB00FCA44507D9E41900F16C
:10046000FF3302D2A44500F2B8801846A4EB0C0476
:1004700040EA08409DE731463046BDE8F087CEF1BE
:10048000200405FA0EF307FA0EF720FA04F83A0CE6
:1004900025FA04F448EA0308B4FBF2F14FEA1845E0
:1004A00002FB11441FFA87FC45EA044501FB0CF3EB
:1004B000AB4200FA0EF409D9ED1901F1FF3080F0DA
:1004C0008A80AB4240F2878002393D44EB1A1FFA22
:1004D00088F5B3FBF2F002FB103345EA034500FB5D
:1004E0000CF3AB4207D9ED1900F1FF386FD2AB42E4
:1004F0006DD902383D44EB1A40EA01418FE7C1F162
:10050000200722FA07F88B4005FA01F448EA0303B2
:1005100020FA07FE4FEA134CFD404EEA040EB5FBED
:10052000FCF94FEA1E440CFB19551FFA83F844EA04
:10053000054509FB08F4AC4202FA01F200FA01FA9F
:1005400008D9ED1809F1FF3043D2AC4241D9A9F1E5
:1005500002091D442D1B1FFA8EFEB5FBFCF00CFB9F
:1005600010554EEA054400FB08F8A04507D9E418E9
:1005700000F1FF3529D2A04527D902381C4440EAB2
:100580000940A4EB0804A0FB02894C45C6464D4631
:1005900015D312D056B1BAEB0E0364EB050404FA7E
:1005A00007F7CB401F43CC40376074600021BDE8A3
:1005B000F0871846F8E69046E0E6C245EAD2B8EB86
:1005C000020E69EB03050138E4E72846D7E7404609
:1005D00091E78146BEE7014678E702383C4445E7AB
:1005E000084608E7A8F102083D442BE7704700BF22
:1005F00080B485B000AFF860B9607A60FB68074AE4
:100600001A60BB68064A1A607B6880221A6000BFC5
:100610001437BD465DF8047B704700BF9C00002086
:10062000F0000020B0B588B000AF00F09DFB00F0F6
:100630001BF800F087F80A4B3C1D1D460FCD0FC478
:1006400095E8070084E807003B1D0021184603F0E9
:10065000E8FD0246034B1A6003F0CCFDFEE700BF45
:10066000887501082442002080B594B000AF07F1DE
:100670001C0334220021184615F06AFD07F1080317
:1006800000221A605A609A60DA601A612B4A2B4B7A
:100690001B6C43F080531364284B1B6C03F0805396
:1006A0007B607B68264A264B1B6843F440431360FB
:1006B000234B1B6803F440433B603B680123FB6111
:1006C0004FF480333B6202237B634FF48003BB63B0
:1006D0000823FB63D8233B6402237B640223BB64AF
:1006E0000223FB6407F11C03184602F03FF803469F
:1006F000002B01D000F0A2F901F0E8FF0346002B27
:1007000001D000F09BF90F23BB600223FB600023A4
:100710003B614FF4A0537B614FF48053BB6107F101
:1007200008030721184602F0CFFA0346002B01D038
:1007300000F084F900BF5037BD4680BD003802404C
:100740000070004080B58AB000AF07F114030022AA
:100750001A605A609A60DA601A61354A344B1B6B32
:1007600043F004031363324B1B6B03F004033B6140
:100770003B692F4A2E4B1B6B43F0800313632C4BBA
:100780001B6B03F08003FB60FB68294A284B1B6B43
:1007900043F001031363264B1B6B03F00103BB60A3
:1007A000BB68234A224B1B6B43F002031363204BAD
:1007B0001B6B03F002037B607B681D4A1C4B1B6BA9
:1007C00043F0400313631A4B1B6B03F040033B6081
:1007D0003B68002244F28101164801F039FF4FF4D2
:1007E00000537B61144BBB610023FB6107F11403D1
:1007F0001946124801F06AFD44F281037B6101232E
:10080000BB610023FB6100233B6207F1140319461F
:10081000084801F05BFD00220521282000F0AAFB1A
:10082000282000F0C3FB00BF2837BD4680BD00BFB5
:10083000003802400004024000001110000802408D
:1008400080B588B000AF604B10221A6000237B6136
:1008500002237B7441F288300AF014FA03467B824B
:1008600000220121022009F07DFE0246574B1A604A
:10087000564B1B68B3F1FF3F03D1554815F096FC6A
:100880009DE0524B1B6807F110011022184609F039
:1008900073F90346B3F1FF3F03D14E4815F086FCD0
:1008A0008DE04A4B1B680521184609F0D3F9034631
:1008B000B3F1FF3F03D1484815F078FC7FE0434B8C
:1008C0001B683946404A184609F038F80246434B3F
:1008D0001A60424B1B68B3F1FF3F03D1404815F04B
:1008E00065FC6CE03D4B1868002301223D4909F08E
:1008F00011FD02463C4B1A603B4B1B68B3F1FF3FB6
:1009000003D13A4815F052FC58E0364B1A78384B70
:10091000A3FB021359080B465B000B44D31ADBB24E
:10092000012B0BD101220121324801F091FE00225E
:100930004FF481412F4801F08BFE30E0294B1A78AB
:100940002B4BA3FB021359080B465B000B44D31A35
:10095000DBB2022B0BD101228021264801F078FE68
:10096000002244F20101234801F072FE17E01D4B02
:100970001A781F4BA3FB021359080B465B000B446C
:10098000D31ADBB2002B0AD101224FF4804119485F
:1009900001F05EFE00228121164801F059FE0F4B46
:1009A000186800230122144909F0CAFC0346B3F178
:1009B000FF3F97D1114815F0F9FB00BF92E700BF48
:1009C0002037BD4680BD00BF3042002028420020B5
:1009D000A4750108AC750108B47501082C4200200B
:1009E000BC7501083842002034420020C47501085B
:1009F000ABAAAAAA0004024044420020CC75010818
:100A000080B582B000AF786002F052FEFFF718FFA9
:100A1000012003F052FCFBE780B582B000AF7860A4
:100A20007B681B68044A934201D100F0ABF900BF18
:100A30000837BD4680BD00BF0000014080B400AF54
:100A400072B6FEE780B582B000AF114A104B1B6C46
:100A500043F0805313640E4B1B6C03F080537B6098
:100A60007B680B4A0A4B5B6C43F480435364084B2E
:100A70005B6C03F480433B603B6800220F216FF006
:100A8000010000F077FA00BF0837BD4680BD00BF07
:100A90000038024080B58CB000AF78600023FB6264
:100AA0000023BB6200227968192000F063FA192044
:100AB00000F07CFA1F4A1F4B5B6C43F00103536448
:100AC0001C4B5B6C03F00103FB60FB6807F1100239
:100AD00007F114031146184602F0D8FA02F0C2FAE0
:100AE00003465B00FB62FB6A134AA2FB03239B0CD9
:100AF000013BBB62114B124A1A60104B40F2E732C5
:100B0000DA600E4ABB6A53600C4B00221A610B4B31
:100B100000229A60094802F0EBFA0346002B04D148
:100B2000064802F047FB034600E001231846303731
:100B3000BD4680BD0038024083DE1B434842002092
:100B40000000014080B400AFFEE780B400AFFEE7D4
:100B500080B400AFFEE780B400AFFEE780B400AF22
:100B6000FEE780B400AF00BFBD465DF8047B704770
:100B700080B500AF024802F095FB00BF80BD00BF0A
:100B80004842002080B582B000AF4FF4005001F021
:100B900079FD4FF40051144801F042FD0346002B4B
:100BA0001ED000BF4FF400510F4801F039FD03463D
:100BB000002BF7D100237B6002E07B6801337B6070
:100BC0007B680A4A9342F8DD094B1B680133084AE7
:100BD0001360074B1B68DBB23033DAB2054B1A7077
:100BE00000BF0837BD4680BD000802405FE3160025
:100BF000404200204442002080B500AF024800F08F
:100C0000C7FD00BF80BD00BFBC5B002090B587B0B2
:100C100000AFF860B9607A6000237B610AE0BC68CD
:100C2000631CBB60AFF300800346DBB223707B69BB
:100C300001337B617A697B689A42F0DB7B681846F6
:100C40001C37BD4690BD80B586B000AFF860B96076
:100C50007A6000237B6109E0BB685A1CBA601B788C
:100C60001846AFF300807B6901337B617A697B684A
:100C70009A42F1DB7B6818461837BD4680BD0000FC
:100C800080B485B000AF7860114B1B68002B02D197
:100C90000F4B104A1A600E4B1B68FB600C4B1A6816
:100CA0007B6813446A46934205D90B4B0C221A60A9
:100CB0004FF0FF3306E0064B1A687B681344044A82
:100CC0001360FB6818461437BD465DF8047B704717
:100CD000F002002010E5002008E5002080B483B079
:100CE00000AF78604FF0FF3318460C37BD465DF813
:100CF000047B704780B483B000AF786039603B6894
:100D00004FF400525A60002318460C37BD465DF878
:100D1000047B704780B483B000AF7860012318462D
:100D20000C37BD465DF8047B704780B485B000AFDA
:100D3000F860B9607A60002318461437BD465DF844
:100D4000047B704780B400AF064A064BD3F8883066
:100D500043F47003C2F8883000BFBD465DF8047BE1
:100D6000704700BF00ED00E080B500AF032000F049
:100D7000F6F80F20FFF78EFEFFF764FE00231846FB
:100D800080BD000080B400AF064B1B781A46064BAE
:100D90001B681344044A136000BFBD465DF8047B22
:100DA000704700BF080000209442002080B400AFCC
:100DB000034B1B681846BD465DF8047B704700BFB7
:100DC0009442002080B584B000AF7860FFF7EEFF5A
:100DD000B8607B68FB60FB68B3F1FF3F05D0094B4F
:100DE0001B781A46FB681344FB6000BFFFF7DEFF69
:100DF0000246BB68D21AFB689A42F7D300BF10378D
:100E0000BD4680BD0800002080B485B000AF78608A
:100E10007B6803F00703FB600B4BDB68BB60BA68C1
:100E20004FF6FF031340BB60FB681A02BB681A430E
:100E3000064B1343BB60044ABB68D36000BF143742
:100E4000BD465DF8047B704700ED00E00000FA0548
:100E500080B400AF044BDB681B0A03F0070318469D
:100E6000BD465DF8047B704700ED00E080B483B0C0
:100E700000AF0346FB7197F90730002B0BDB0949E4
:100E800097F907305B09FA7902F01F02012000FA96
:100E900002F241F8232000BF0C37BD465DF8047B09
:100EA000704700BF00E100E080B483B000AF0346AC
:100EB0003960FB7197F90730002B0ADB0D4997F970
:100EC00007303A68D2B21201D2B20B4483F8002341
:100ED0000AE00949FB7903F00F03043B3A68D2B2F8
:100EE0001201D2B20B441A7600BF0C37BD465DF832
:100EF000047B704700E100E000ED00E080B489B0C1
:100F000000AFF860B9607A60FB6803F00703FB612B
:100F1000FB69C3F10703042B28BF0423BB61FB69F2
:100F20000433062B02D9FB69033B00E000237B61FD
:100F30000122BB6902FA03F35A1EBB681A407B699F
:100F40009A4001217B6901FA03F3591E7B680B402B
:100F5000134318462437BD465DF8047B704780B5BF
:100F600082B000AF78607868FFF74EFF00BF0837A7
:100F7000BD4680BD80B586B000AF0346B9607A60DB
:100F8000FB7300237B61FFF763FF78617A68B968C0
:100F90007869FFF7B3FF024697F90F3011461846FC
:100FA000FFF782FF00BF1837BD4680BD80B582B015
:100FB00000AF0346FB7197F907301846FFF756FF5D
:100FC00000BF0837BD4680BD80B588B000AF7860EF
:100FD0000023FB610023FB60A94BBB6100237B6105
:100FE00000233B617B68002B01D1012383E17B68F7
:100FF00093F84430DBB2002B06D17B68002283F8E3
:101000004520786802F0B0FC9E4A9E4B5B6C43F42E
:10101000804353649B4B5B6C03F48043BB60BB68B1
:10102000994A994B5B6823F4000353609649964BA9
:101030005A687B681B6A13434B607B681B687A683D
:10104000126802F58052126842F0010203F58053E3
:101050001A60FFF7ABFE786111E0FFF7A7FE0246CA
:101060007B69D31AB3F5FA7F09D97B68032283F829
:1010700044207B68002283F8452003233BE17B6802
:101080001B6803F580531B6803F00103002BE4D1B8
:101090007B681B681B69FB61FB6923F01C03FB6118
:1010A00001F0D4FFB861BB69784A934208D9BB69A3
:1010B000774A934204D8FB6943F00803FB6127E0B9
:1010C000BB69734A934208D9BB69724A934204D8F8
:1010D000FB6943F00C03FB611AE0BB696D4A934264
:1010E00003D9BB696C4A934211D9BB696A4A9342DE
:1010F00008D9BB69694A934204D8FB6943F00403E9
:10110000FB6105E0FB6943F01003FB6100E000BFF9
:101110007B681B68FA691A614FF400420021786805
:1011200000F019FC0346002B0BD001233B61396909
:10113000786800F0CDFD7B68012283F8442001230C
:10114000D9E0FF20FFF73EFE7B685B68002B00F0D4
:10115000A780FFF72BFE786107F10C031A460121E7
:10116000786800F090FBFFF721FE02467B69D31AF6
:1011700041F2883293420FD901233B613969786883
:1011800000F0A6FD7B68012283F844207B680022E2
:1011900083F845200323AEE0FB6803F00403002B33
:1011A000DAD04FF480520021786800F0D4FB034677
:1011B000002B0BD001233B613969786800F088FD72
:1011C0007B68012283F84420012394E0FFF7EEFDC1
:1011D000786107F10C031A460121786800F053FB8F
:1011E000FFF7E4FD02467B69D31A41F2883293424D
:1011F0000FD901233B613969786800F069FD7B688C
:10120000012283F844207B68002283F845200323D1
:1012100071E0FB6803F02003002BDAD007F10C0328
:101220001A461021786800F02EFB0346002B0BD0E5
:1012300001233B613969786800F04AFD7B6801222F
:1012400083F84420012356E0FB6803F00403002BDD
:1012500004D07B684FF40062DA6002E07B68002211
:10126000DA60FB6803F00203002B03D07B680022E6
:101270009A6037E07B684FF480429A6032E000BFAA
:10128000008793030038024000380140FF2C3101F1
:10129000BF0E1602FF869303FFE0F5057FD1F0082D
:1012A0007B68DB68DB089AB27B689B685B089BB253
:1012B00013439BB21A460021786800F04CFB0346AA
:1012C000002B0BD001233B613969786800F000FDE9
:1012D0007B68012283F8442001230CE040F6FF7074
:1012E000FFF770FD3969786800F0F2FC7B68012235
:1012F00083F84420002318462037BD4680BD00BF38
:1013000080B487B000AFF860B9607A603B600023BA
:101310007B61FB6893F84530012B01D1022352E039
:10132000FB68012283F84520FB68022283F84420F1
:10133000FB68BA68DA6200237B6130E07B695B019D
:10134000BA6813443B613B694FF480121A607B69B1
:1013500040F2F45202FB03F37A6813441A463B69E5
:101360009A60FB68DB69002B05D13B691B6843F47D
:1013700040023B691A603B685A1E7B699A4208D951
:101380007B6901335B01BA6813441A463B69DA6032
:1013900002E0BA683B69DA607B6901337B617A6994
:1013A0003B689A42CAD3FB681968BA6841F21003D5
:1013B0000B441A60FB68012283F84420FB6800227A
:1013C00083F84520002318461C37BD465DF8047B92
:1013D000704780B487B000AFF860B9607A603B6056
:1013E00000237B61FB6893F84530012B01D1022378
:1013F00056E0FB68012283F84520FB68022283F84F
:101400004420FB68BA689A6200237B6134E07B6900
:101410005B01BA6813443B613B694FF000421A60BC
:101420003B6944F2F4525A607B6940F2F45202FB89
:1014300003F37A6813441A463B699A60FB689B6918
:10144000012B05D13B695B6823F000423B695A6080
:101450003B685A1E7B699A4208D97B6901335B015C
:10146000BA6813441A463B69DA6002E0BA683B691D
:10147000DA607B6901337B617A693B689A42C6D343
:10148000FB681968BA6841F20C030B441A60FB68E8
:10149000012283F84420FB68002283F845200023C2
:1014A00018461C37BD465DF8047B704780B487B092
:1014B00000AF7860396000237B610023FB6000236C
:1014C0003B617B6893F84530012B01D10223CDE0CD
:1014D0007B68012283F845207B68022283F8442040
:1014E0003B68002B09D17B68012283F844207B688C
:1014F000002283F845200123B8E07B68DB6A1B6883
:10150000002B09DA7B68122283F844207B680022D2
:1015100083F845200123A9E03B6840F2F45293424E
:1015200015D93B68544AA2FB03239B0A7B613A68A6
:10153000514BA3FB02139B0A40F2F45101FB03F34E
:10154000D31A002B05D07B6901337B6101E00123B5
:101550007B617B69012B1CD17B68DB6A7A68D26A6C
:10156000126842F040521A607B68DB6A3A68C2F344
:101570000C025A607B68DB6A7A68D26A126842F0B1
:1015800000421A607B68DB6ADB681A467B68DA62B5
:101590004BE000233B6144E07B68DB6A7A68D26AF7
:1015A000126822F040521A603B69002B07D17B6819
:1015B000DB6A7A68D26A126842F080521A607B68ED
:1015C000DB6A40F2F4525A607B695A1E3B699A42C8
:1015D00016D17B68DB6A7A68D26A126842F00052E0
:1015E0001A607B69254A02FB03F23B68134403F24D
:1015F000F453FB607B68DB6AFA68C2F30C025A6042
:101600007B68DB6A7A68D26A126842F000421A602C
:101610007B68DB6ADB681A467B68DA623B69013308
:101620003B613A697B699A42B6D37B681A6841F29A
:10163000140313441B6803F00403002B0DD07B68D4
:101640001A6841F21403134404221A607B681A6872
:1016500041F20403134400221A607B68012283F8DC
:1016600044207B68002283F84520002318461C375D
:10167000BD465DF8047B70470BB002AC0CFAFFFF6F
:1016800080B485B000AF78600023FB607B6893F87E
:101690004530012B01D1022374E07B68012283F8DD
:1016A00045207B68022283F844205AE0FB6801331E
:1016B000FB607B689B6A1B6803F44073B3F5007F93
:1016C0000DD17B689A6A7B681A637B6801229A63F2
:1016D0007B689B6ADB681A467B689A6241E07B689C
:1016E0009B6A1B6803F44073002B0BD17B689B6BD8
:1016F0005A1C7B689A637B689B6ADB681A467B6826
:101700009A622EE07B689A6A7B685A637B689B6B5F
:101710005A1C7B689A637B689B6B012B03D17B68A7
:101720009A6A7B681A637B689B6A1B681B0CC3F30D
:101730000D031A1F7B68DA637B681B6B9A687B68F2
:101740001A647B689B6ADB681A467B689A627B68CE
:10175000012283F844207B68002283F8452000237F
:1017600010E07B689B6A1B68002B02DBFB68032B85
:101770009CD97B68012283F844207B68002283F88F
:101780004520012318461437BD465DF8047B704799
:1017900080B582B000AF78607B681A6841F21403AC
:1017A00013441B6803F04003402B12D1786802F009
:1017B0009BF97B681A6841F21403134440221A60B3
:1017C0007B68012283F844207B68002283F845204F
:1017D0001BE07B681A6841F2140313441B6803F092
:1017E0000103012B11D1786800F039F87B681A6881
:1017F00041F21403134401221A607B68012283F82A
:1018000044207B68002283F845207B681A6841F2F7
:10181000140313444FF480321A607B681A6841F253
:10182000140313441B6803F40043B3F5004F12D1B3
:10183000786800F01EF87B681A6841F214031344BC
:101840004FF400421A607B68012283F844207B68D1
:10185000002283F8452000BF0837BD4680BD80B414
:1018600083B000AF786000BF0C37BD465DF8047BE5
:10187000704780B483B000AF786000BF0C37BD46BE
:101880005DF8047B704780B586B000AFF8600B460A
:101890007A607B8100237B6100233B61FB6893F8C6
:1018A0004430DBB2822B01D1022350E0FB6882225C
:1018B00083F84420FB681B681B697B617B6903F02C
:1018C0001C037B61FB681B8ADB029BB27A691343B2
:1018D0007B617B899B0103F4F8637A6913437B6125
:1018E0007B6923F002037B617B6943F001037B6129
:1018F000FB681B687A691A61FFF758FA386115E0CE
:10190000FFF754FA02463B69D31AB3F5803F09D377
:10191000FB68012283F84420FB68002283F84520FD
:10192000032314E0FB681B681B697B617B6903F080
:101930000103002BE4D1FB681B685B699BB21A466C
:101940007B681A60FB68012283F844200023184654
:101950001837BD4680BD80B586B000AFF8600B4635
:101960007A607B8100237B6100233B61FB6893F8F5
:101970004430DBB2422B01D102234EE0FB6842220D
:1019800083F84420FB681B681B697B617B6903F05B
:101990001C037B61FB681B8ADB029BB27A691343E1
:1019A0007B617B899B0103F4F8637A6913437B6154
:1019B0007B6943F002037B617B6943F001037B6138
:1019C000FB681B687A6892B25A61FB681B687A6987
:1019D0001A61FFF7EBF9386115E0FFF7E7F9024606
:1019E0003B69D31AB3F5803F09D3FB68012283F822
:1019F0004420FB68002283F8452003230DE0FB68A8
:101A00001B681B697B617B6903F00103002BE4D138
:101A1000FB68012283F84420002318461837BD468E
:101A200080BD80B582B000AF78607B6893F84530A8
:101A3000012B01D102231FE07B68012283F845209E
:101A40007B68022283F84420786800F041FB7868C4
:101A500000F078FB786800F00FFC786800F0ACFBD1
:101A6000786800F0D9FB7B68012283F844207B680A
:101A7000002283F84520002318460837BD4680BD64
:101A800080B582B000AF78607B6893F84530012B59
:101A900001D102231FE07B68012283F845207B6887
:101AA000022283F84420786800F09EFB786800F0FA
:101AB000CBFB786800F063FB786800F0DDFB7868AA
:101AC00000F023FB7B68012283F844207B6800221E
:101AD00083F84520002318460837BD4680BD000026
:101AE00080B584B000AF786039600023FB607B680C
:101AF00093F84530012B01D10223E3E07B680122FA
:101B000083F845207B68022283F844203B68002B41
:101B100000F0B0807B681B681B68FB60FA686B4B49
:101B20001340FB603B681A683B685B681A433B687C
:101B30009B681A433B68DB681A437B689B681A43BF
:101B40003B681B691A433B685B691A437B68DB6827
:101B50001A433B689B691A433B68DB691A433B683D
:101B60001B6A1A433B685B6A1A433B689B6A1343D0
:101B7000FA681343FB607B681B68FA681A607B682D
:101B80001B681B68FB600120FFF71CF97B681B6862
:101B9000FA681A607B681B683A68D16A3A68126B07
:101BA00011433A68526B11433A68926B11433A6899
:101BB000D26B11433A68126C11433A68526C11436C
:101BC0003A68926C0A435A607B681B685B68FB60EA
:101BD0000120FFF7F7F87B681B68FA685A607B689A
:101BE0001B683A68D26C9A607B681B683A68126D11
:101BF000DA607B681B689B69FB60FA684FF641738B
:101C00001340FB603B685B6D1A043B689B6D1A4395
:101C10003B68DB6D1A433B681B6E1A433B685B6E87
:101C20001A433B689B6E1343FA681343FB607B685F
:101C30001B68FA689A617B681B689B69FB600120DE
:101C4000FFF7C0F87B681B68FA689A617B681B68BD
:101C50003A68D16E3A68126F0A43DA617B681B6892
:101C6000DB69FB600120FFF7ADF87B681B68FA6851
:101C7000DA611EE07B681B681B68FB60FB6823F46D
:101C80009043FB607B689A687B68DB681343FA6863
:101C90001343FB607B681B68FA681A607B681B68EB
:101CA0001B68FB600120FFF78DF87B681B68FA68F2
:101CB0001A607B68012283F844207B68002283F845
:101CC0004520002318461037BD4680BD0F8120FFF8
:101CD00080B5B0B000AF786039600023C7F8BC3081
:101CE0003B68002B07D07B684FF40062DA607B68AA
:101CF0004FF480429A600023BB640023FB640023FE
:101D00003B6500237B650023BB650023FB657B6887
:101D1000DB69002B03D14FF480633B6601E00023B5
:101D20003B664FF400737B660023BB660023FB66B3
:101D300000233B6700237B670023BB674023FB67CF
:101D40000023C7F880300023C7F884300023C7F889
:101D500088300023C7F88C300023C7F89030002368
:101D6000C7F894300023C7F898300023C7F89C3098
:101D70008023C7F8A0300023C7F8A4300023C7F899
:101D8000A8300023C7F8AC300023C7F8B0300023D8
:101D9000C7F8B4300023C7F8B8307B681B681B68ED
:101DA000C7F8BC30D7F8BC20AA4B1340C7F8BC30EA
:101DB000BA6CFB6C1A433B6D1A437B6D1A437B680C
:101DC0009B681A43BB6D1A43FB6D1A437B68DB6843
:101DD0001A433B6E1A437B6E1A43BB6E1A43FB6E6B
:101DE0001A433B6F1343D7F8BC201343C7F8BC30EA
:101DF0007B681B68D7F8BC201A607B681B681B686F
:101E0000C7F8BC300120FEF7DDFF7B681B68D7F800
:101E1000BC201A607B681B68796FBA6F1143FA6F38
:101E20001143D7F880201143D7F884201143D7F805
:101E300088201143D7F88C201143D7F890200A430B
:101E40005A607B681B685B68C7F8BC300120FEF7EE
:101E5000B9FF7B681B68D7F8BC205A607B681B6899
:101E6000D7F894209A607B681B68D7F89820DA60CE
:101E70007B681B689B69C7F8BC30D7F8BC204FF65D
:101E800041731340C7F8BC30D7F89C301A04D7F818
:101E9000A0301A43D7F8A4301A43D7F8A8301A4311
:101EA000D7F8AC301A43D7F8B0301343D7F8BC207A
:101EB0001343C7F8BC307B681B68D7F8BC209A6115
:101EC0007B681B689B69C7F8BC300120FEF77AFF6E
:101ED0007B681B68D7F8BC209A617B681B68D7F8C1
:101EE000B410D7F8B8200A43DA617B681B68DB6955
:101EF000C7F8BC300120FEF765FF7B681B68D7F888
:101F0000BC20DA610023BB604FF00073FB6000234C
:101F10003B614FF400137B610023BB610023FB6135
:101F200000233B6200237B620423BB624FF00073FB
:101F3000FB624FF480333B634FF480037B634FF4C9
:101F40000053BB638023FB6300233B6400237B645B
:101F50007B681A6841F2180313441B68C7F8BC3049
:101F6000D7F8BC203C4B1340C7F8BC30BA68FB68BC
:101F70001A433B691A437B691A43BB691A43FB69DD
:101F80001A433B6A1A437B6A1A43BB6A1343D7F866
:101F9000BC201343C7F8BC307B681A6841F21803B1
:101FA0001344D7F8BC201A607B681A6841F2180302
:101FB00013441B68C7F8BC300120FEF703FF7B68A1
:101FC0001A6841F218031344D7F8BC201A607B68E2
:101FD0001B68F96A3A6B11437A6B1143BA6B114370
:101FE000FA6B11433A6C920011437A6C0A4342F443
:101FF000000203F580531A607B681B6803F5805369
:102000001B68C7F8BC300120FEF7DCFE7B681B684C
:1020100003F58053D7F8BC201A607B689B69012BBD
:102020000DD17B6819687B681A6841F21C03134460
:102030001B680A4A1A4341F21C030B441A607B686E
:102040005B691A460021786800F00AF800BFC037C3
:10205000BD4680BD0F8120FF233FDEF84000010018
:1020600080B487B000AFF860B9607A607B680533F0
:102070001B781B027A680432127813437B61BA68BA
:10208000114B13441A467B6913607B6803331B783A
:102090001A067B6802331B781B041A437B680133E2
:1020A0001B781B0213437A68127813437B61BA686A
:1020B000064B13441A467B69136000BF1C37BD46AC
:1020C0005DF8047B704700BF4080024044800240BE
:1020D00080B584B000AF78600023FB607B681B682C
:1020E0007A681268126842F008021A607B681B68FE
:1020F0001B68FB600120FEF765FE7B681B68FA68C1
:102100001A6000BF1037BD4680BD80B584B000AFF7
:1021100078600023FB607B681B687A68126812682D
:1021200022F008021A607B681B681B68FB600120B4
:10213000FEF748FE7B681B68FA681A6000BF10371C
:10214000BD4680BD80B584B000AF78600023FB60E1
:102150007B681B687A681268126842F004021A6091
:102160007B681B681B68FB600120FEF72BFE7B6809
:102170001B68FA681A6000BF1037BD4680BD80B585
:1021800084B000AF78600023FB607B681B687A68CE
:102190001268126822F004021A607B681B681B68D0
:1021A000FB600120FEF70EFE7B681B68FA681A6070
:1021B00000BF1037BD4680BD80B483B000AF7860EB
:1021C0007B6819687B681A6841F2180313441B681E
:1021D00043F4005241F218030B441A6000BF0C375D
:1021E000BD465DF8047B704780B483B000AF786073
:1021F0007B6819687B681A6841F2180313441B68EE
:1022000023F4005241F218030B441A6000BF0C374C
:10221000BD465DF8047B704780B483B000AF786042
:102220007B6819687B681A6841F2180313441B68BD
:1022300043F0020241F218030B441A6000BF0C374E
:10224000BD465DF8047B704780B483B000AF786012
:102250007B6819687B681A6841F2180313441B688D
:1022600023F0020241F218030B441A6000BF0C373E
:10227000BD465DF8047B704780B584B000AF7860E0
:102280000023FB607B6819687B681A6841F21803B9
:1022900013441B6843F4801241F218030B441A6084
:1022A0007B681A6841F2180313441B68FB60012025
:1022B000FEF788FD7B681968FA6841F218030B4441
:1022C0001A6000BF1037BD4680BD000080B489B0E1
:1022D00000AF786039600023FB6100237B6100233D
:1022E0003B610023BB610023FB6175E10122FB69B7
:1022F00002FA03F37B613B681A687B6913403B6118
:102300003A697B699A4240F064813B685B68012BC3
:102310000BD03B685B68022B07D03B685B68112BD6
:1023200003D03B685B68122B30D17B689B68BB6134
:10233000FB695B00032202FA03F3DB43BA69134033
:10234000BB613B68DA68FB695B0002FA03F3BA69B8
:102350001343BB617B68BA699A607B685B68BB6149
:102360000122FB6902FA03F3DB43BA691340BB6144
:102370003B685B681B0903F00102FB6902FA03F387
:10238000BA691343BB617B68BA695A607B68DB68D2
:10239000BB61FB695B00032202FA03F3DB43BA690A
:1023A0001340BB613B689A68FB695B0002FA03F368
:1023B000BA691343BB617B68BA69DA603B685B68E2
:1023C000022B03D03B685B68122B23D1FB69DA0830
:1023D0007B68083253F82230BB61FB6903F00703C6
:1023E0009B000F2202FA03F3DB43BA691340BB617F
:1023F0003B681A69FB6903F007039B0002FA03F3C9
:10240000BA691343BB61FB69DA087B680832B969B2
:1024100043F822107B681B68BB61FB695B000322E9
:1024200002FA03F3DB43BA691340BB613B685B68A4
:1024300003F00302FB695B0002FA03F3BA6913437A
:10244000BB617B68BA691A603B685B6803F08053C4
:10245000002B00F0BE80654A644B5B6C43F4804304
:102460005364624B5B6C03F48043FB60FB68604A1F
:10247000FB699B08023352F82330BB61FB6903F010
:1024800003039B000F2202FA03F3DB43BA691340F4
:10249000BB617B68574A934237D07B68564A934268
:1024A00031D07B68554A93422BD07B68544A934283
:1024B00025D07B68534A93421FD07B68524A93428F
:1024C00019D07B68514A934213D07B68504A93429B
:1024D0000DD07B684F4A934207D07B684E4A9342A7
:1024E00001D1092312E00A2310E008230EE007239C
:1024F0000CE006230AE0052308E0042306E003239A
:1025000004E0022302E0012300E00023FA6902F064
:10251000030292009340BA691343BB613449FB69DB
:102520009B080233BA6941F823203C4B1B68BB610E
:102530003B69DB43BA691340BB613B685B6803F4EA
:102540008033002B03D0BA693B691343BB61334A24
:10255000BB691360314B5B68BB613B69DB43BA69A4
:102560001340BB613B685B6803F40033002B03D06E
:10257000BA693B691343BB61284ABB695360274B67
:102580009B68BB613B69DB43BA691340BB613B6835
:102590005B6803F48013002B03D0BA693B691343D3
:1025A000BB611E4ABB6993601C4BDB68BB613B6926
:1025B000DB43BA691340BB613B685B6803F40013FB
:1025C000002B03D0BA693B691343BB61134ABB6953
:1025D000D360FB690133FB61FB690F2B7FF686AE8D
:1025E00000BF2437BD465DF8047B704700380240C9
:1025F0000038014000000240000402400008024090
:10260000000C02400010024000140240001802407A
:10261000001C02400020024000240240003C014017
:1026200080B485B000AF78600B467B807B681A6908
:102630007B881340002B02D00123FB7301E00023B1
:10264000FB73FB7B18461437BD465DF8047B70476F
:1026500080B483B000AF78600B467B8013467B70FC
:102660007B78002B03D07A887B689A6103E07B88B3
:102670001A047B689A6100BF0C37BD465DF8047B85
:102680007047000080B582B000AF0346FB80084B66
:102690005A69FB881340002B06D0054AFB8853611A
:1026A000FB88184600F006F800BF0837BD4680BD1D
:1026B000003C014080B483B000AF0346FB8000BF04
:1026C0000C37BD465DF8047B7047000080B582B0D2
:1026D00000AF00237B60234A224B1B6C43F08053E6
:1026E0001364204B1B6C03F080533B603B681E4A15
:1026F0001D4B1B6843F480331360FEF757FB786073
:1027000009E0FEF753FB02467B68D31AB3F57A7FE4
:1027100001D9032322E0144B5B6803F48033B3F543
:10272000803FEED1104A104B1B6843F40033136016
:10273000FEF73CFB786009E0FEF738FB02467B6859
:10274000D31AB3F57A7F01D9032307E0064B5B6800
:1027500003F40033B3F5003FEED1002318460837E9
:10276000BD4680BD003802400070004080B586B094
:1027700000AF78600023FB757B68002B01D101233B
:102780009BE27B681B6803F00103002B00F087804D
:10279000964B9B6803F00C03042B0CD0934B9B6867
:1027A00003F00C03082B12D1904B5B6803F48003F9
:1027B000B3F5800F0BD18D4B1B6803F40033002B56
:1027C0006CD07B685B68002B68D1012375E27B6865
:1027D0005B68B3F5803F06D1844A844B1B6843F4A1
:1027E000803313602EE07B685B68002B0CD17F4A3E
:1027F0007E4B1B6823F4803313607C4A7B4B1B6841
:1028000023F4802313601DE07B685B68B3F5A02F81
:102810000CD1764A754B1B6843F480231360734ACE
:10282000724B1B6843F4803313600BE06F4A6F4BAD
:102830001B6823F4803313606C4A6C4B1B6823F4D1
:10284000802313607B685B68002B13D0FEF7AEFA21
:10285000386108E0FEF7AAFA02463B69D31A642BF6
:1028600001D9032329E2614B1B6803F40033002BD9
:10287000F0D014E0FEF79AFA386108E0FEF796FA15
:1028800002463B69D31A642B01D9032315E2574B47
:102890001B6803F40033002BF0D100E000BF7B681D
:1028A0001B6803F00203002B69D0504B9B6803F0B8
:1028B0000C03002B0BD04D4B9B6803F00C03082B33
:1028C0001CD14A4B5B6803F48003002B16D1474BA5
:1028D0001B6803F00203002B05D07B68DB68012B2B
:1028E00001D00123E9E14149404B1B6823F0F80284
:1028F0007B681B69DB0013430B6040E07B68DB688F
:10290000002B23D0394A394B1B6843F00103136075
:10291000FEF74CFA386108E0FEF748FA02463B69D8
:10292000D31A022B01D90323C7E1304B1B6803F0F4
:102930000203002BF0D02D492C4B1B6823F0F8022A
:102940007B681B69DB0013430B6018E0274A274BA9
:102950001B6823F001031360FEF728FA386108E0D2
:10296000FEF724FA02463B69D31A022B01D903234E
:10297000A3E11E4B1B6803F00203002BF0D17B6820
:102980001B6803F00803002B38D07B685B69002BC1
:1029900019D0164A154B5B6F43F001035367FEF7DE
:1029A00005FA386108E0FEF701FA02463B69D31ADE
:1029B000022B01D9032380E10C4B5B6F03F0020370
:1029C000002BF0D01AE0094A084B5B6F23F001039B
:1029D0005367FEF7EBF938610AE0FEF7E7F90246C4
:1029E0003B69D31A022B03D9032366E10038024066
:1029F000924B5B6F03F00203002BEED17B681B68E8
:102A000003F00403002B00F0A4808C4B1B6C03F03C
:102A10008053002B0DD1894A884B1B6C43F08053A7
:102A20001364864B1B6C03F08053BB60BB680123AF
:102A3000FB75834B1B6803F48073002B18D1804A0D
:102A40007F4B1B6843F480731360FEF7AFF9386166
:102A500008E0FEF7ABF902463B69D31A642B01D9B3
:102A600003232AE1764B1B6803F48073002BF0D01C
:102A70007B689B68012B06D1704A704B1B6F43F03B
:102A8000010313672DE07B689B68002B0CD16B4A18
:102A90006A4B1B6F23F001031367684A674B1B6F78
:102AA00023F0040313671CE07B689B68052B0CD1A3
:102AB000624A624B1B6F43F0040313675F4A5F4B2C
:102AC0001B6F43F0010313670BE05C4A5B4B1B6F0A
:102AD00023F001031367594A584B1B6F23F004037B
:102AE00013677B689B68002B15D0FEF75FF9386190
:102AF0000AE0FEF75BF902463B69D31A41F28832DD
:102B0000934201D90323D8E04C4B1B6F03F002031F
:102B1000002BEED014E0FEF749F938610AE0FEF729
:102B200045F902463B69D31A41F28832934201D9F2
:102B30000323C2E0414B1B6F03F00203002BEED1D5
:102B4000FB7D012B05D13D4A3C4B1B6C23F0805390
:102B500013647B689B69002B00F0AE80374B9B6849
:102B600003F00C03082B6DD07B689B69022B4BD1C3
:102B7000324A324B1B6823F080731360FEF716F95C
:102B8000386108E0FEF712F902463B69D31A022BBE
:102B900001D9032391E0294B1B6803F00073002B3C
:102BA000F0D126497B68DA697B681B6A1A437B6827
:102BB0005B6A9B011A437B689B6A5B08013B1B04B1
:102BC0001A437B68DB6A1B061A437B681B6B1B0777
:102BD00013434B60194A194B1B6843F08073136011
:102BE000FEF7E4F8386108E0FEF7E0F802463B69DA
:102BF000D31A022B01D903235FE0104B1B6803F0AB
:102C00000073002BF0D057E00C4A0C4B1B6823F0EC
:102C100080731360FEF7CAF8386108E0FEF7C6F863
:102C200002463B69D31A022B01D9032345E0034B2B
:102C30001B6803F00073002BF0D13DE00038024028
:102C4000007000401F4B5B68FB607B689B69012B39
:102C500030D0FB6803F480027B68DB699A4229D19B
:102C6000FB6803F03F027B681B6A9A4222D1FA6834
:102C700047F6C07313407A68526A9201934219D1A1
:102C8000FB6803F440327B689B6A5B08013B1B04D2
:102C90009A420FD1FB6803F070627B68DB6A1B0607
:102CA0009A4207D1FB6803F0E0427B681B6B1B076D
:102CB0009A4201D0012300E0002318461837BD4690
:102CC00080BD00BF0038024080B584B000AF78609E
:102CD00039600023FB607B68002B01D10123D0E029
:102CE0006A4B1B6803F00F023B689A4210D2674997
:102CF000664B1B6823F00F023B6813430B60634B6A
:102D00001B6803F00F023B689A4201D00123B8E030
:102D10007B681B6803F00203002B20D07B681B68D4
:102D200003F00403002B05D0594A594B9B6843F428
:102D3000E05393607B681B6803F00803002B05D009
:102D4000534A534B9B6843F4604393605049504B44
:102D50009B6823F0F0027B689B6813438B607B6861
:102D60001B6803F00103002B40D07B685B68012BDC
:102D700007D1474B1B6803F40033002B15D1012307
:102D80007FE07B685B68022B07D1414B1B6803F037
:102D90000073002B09D1012373E03D4B1B6803F046
:102DA0000203002B01D101236BE03949384B9B68AA
:102DB00023F003027B685B6813438B60FDF7F6FF2B
:102DC000F8600AE0FDF7F2FF0246FB68D31A41F211
:102DD0008832934201D9032353E02D4B9B6803F0C3
:102DE0000C027B685B689B009A42EBD1274B1B6807
:102DF00003F00F023B689A4210D92449234B1B6809
:102E000023F00F023B6813430B60204B1B6803F059
:102E10000F023B689A4201D0012332E07B681B68B5
:102E200003F00403002B08D01949194B9B6823F4C5
:102E3000E0527B68DB6813438B607B681B6803F0A0
:102E40000803002B09D01249114B9B6823F4604200
:102E50007B681B69DB0013438B6000F021F801469F
:102E60000B4B9B681B0903F00F030A4AD35C21FA42
:102E700003F3094A1360094B1B681846FDF70AFE65
:102E8000002318461037BD4680BD00BF003C0240FD
:102E90000038024018AF01080000002004000020A4
:102EA0002DE9F04F8FB000AF0023FB6200237B635E
:102EB0000023BB6200233B63624B9B6803F00C035F
:102EC000042B07D0082B08D0002B40F0B2805E4BBB
:102ED0003B63B1E05C4B3B63AEE05A4B5B6803F095
:102EE0003F03FB62574B5B6803F48003002B4ED01B
:102EF000544B5B689B094FF0000440F2FF114FF008
:102F0000000201EA030102EA04020B4614466001D2
:102F10007862786A40EAD36078625B013B62D7E905
:102F200008345B1A64EB02044FEA841949EA936996
:102F30004FEA8318B8EB030869EB04094FEAC903A9
:102F4000FB61FB6943EA5873FB614FEAC803BB614D
:102F5000D7E9068918EB010849EB02094FEA8923F2
:102F60007B617B6943EA98537B614FEA88233B612D
:102F7000D7E9048940464946FB6A4FF000041A46E7
:102F80002346FDF7ADF903460C467B6343E02D4B2A
:102F90005B689B094FF0000440F2FF114FF0000204
:102FA00001EA030102EA04020B4614466001F860DC
:102FB000F86840EAD360F8605B01BB60D7E902348F
:102FC0005B1A64EB0204A60146EA93669D01ED1AC2
:102FD00066EB0406F3007B607B6843EA55737B6015
:102FE000EB003B6097E860006D1846EB02064FEA85
:102FF000862B4BEA955B4FEA852A55465E46284666
:103000003146FB6A4FF000041A462346FDF768F983
:1030100003460C467B630B4B5B681B0C03F00303FE
:1030200001335B00BB627A6BBB6AB2FBF3F33B63B9
:1030300002E0054B3B6300BF3B6B18463C37BD4687
:10304000BDE8F08F003802400024F40080B400AFE7
:10305000034B1B681846BD465DF8047B704700BFF4
:103060000000002080B500AFFFF7F0FF0146054BE0
:103070009B685B0B03F00703034AD35C21FA03F35D
:10308000184680BD0038024028AF010880B483B0E4
:1030900000AF786039607B680F221A60124B9B6822
:1030A00003F003027B685A600F4B9B6803F0F00249
:1030B0007B689A600C4B9B6803F4E0527B68DA6093
:1030C000094B9B68DB0803F4E0527B681A61074BED
:1030D0001B6803F00F023B681A6000BF0C37BD4647
:1030E0005DF8047B704700BF00380240003C02409E
:1030F00080B582B000AF78607B68002B01D10123DE
:1031000049E07B6893F83D30DBB2002B06D17B6849
:10311000002283F83C20786800F041F87B680222A6
:1031200083F83D207B681A687B6804331946104693
:1031300000F000FA7B68012283F848207B680122B6
:1031400083F83E207B68012283F83F207B680122C0
:1031500083F840207B68012283F841207B680122AC
:1031600083F842207B68012283F843207B68012298
:1031700083F844207B68012283F845207B68012284
:1031800083F846207B68012283F847207B68012270
:1031900083F83D20002318460837BD4680BD80B423
:1031A00083B000AF786000BF0C37BD465DF8047B8C
:1031B0007047000080B485B000AF78607B6893F8FA
:1031C0003D30DBB2012B01D0012354E07B680222A9
:1031D00083F83D207B681B687A681268D26842F0E9
:1031E0000102DA607B681B68264A934222D07B6822
:1031F0001B68B3F1804F1DD07B681B68224A934245
:1032000018D07B681B68214A934213D07B681B68E7
:103210001F4A93420ED07B681B681E4A934209D016
:103220007B681B681C4A934204D07B681B681B4A5E
:10323000934215D17B681B689A68194B1340FB6059
:10324000FB68062B15D0FB68B3F5803F11D07B6877
:103250001B687A681268126842F001021A6008E07E
:103260007B681B687A681268126842F001021A6073
:1032700000E000BF002318461437BD465DF8047B0C
:10328000704700BF000001400004004000080040FB
:10329000000C0040000401400040014000180040C4
:1032A0000700010080B582B000AF78607B681B68C2
:1032B0001B6903F00203022B22D17B681B68DB68C9
:1032C00003F00203022B1BD17B681B686FF0020224
:1032D0001A617B6801221A777B681B689B6903F07F
:1032E0000303002B03D0786800F005F905E0786847
:1032F00000F0F7F8786800F008F97B6800221A7788
:103300007B681B681B6903F00403042B22D17B68D4
:103310001B68DB6803F00403042B1BD17B681B686C
:103320006FF004021A617B6802221A777B681B68BF
:103330009B6903F44073002B03D0786800F0DBF83E
:1033400005E0786800F0CDF8786800F0DEF87B687A
:1033500000221A777B681B681B6903F00803082B9F
:1033600022D17B681B68DB6803F00803082B1BD1A4
:103370007B681B686FF008021A617B6804221A7769
:103380007B681B68DB6903F00303002B03D07868BC
:1033900000F0B1F805E0786800F0A3F8786800F074
:1033A000B4F87B6800221A777B681B681B6903F0FE
:1033B0001003102B22D17B681B68DB6803F010031D
:1033C000102B1BD17B681B686FF010021A617B68A1
:1033D00008221A777B681B68DB6903F44073002BB3
:1033E00003D0786800F087F805E0786800F079F895
:1033F000786800F08AF87B6800221A777B681B687F
:103400001B6903F00103012B0ED17B681B68DB688D
:1034100003F00103012B07D17B681B686FF00102E9
:103420001A617868FDF7F8FA7B681B681B6903F07E
:103430008003802B0ED17B681B68DB6803F0800360
:10344000802B07D17B681B686FF080021A61786857
:1034500000F01AF97B681B681B6903F48073B3F5ED
:10346000807F0ED17B681B68DB6803F08003802BB4
:1034700007D17B681B686FF480721A61786800F06E
:103480000DF97B681B681B6903F04003402B0ED1CC
:103490007B681B68DB6803F04003402B07D17B6827
:1034A0001B686FF040021A61786800F038F87B689A
:1034B0001B681B6903F02003202B0ED17B681B685F
:1034C000DB6803F02003202B07D17B681B686FF0BB
:1034D00020021A61786800F0CDF800BF0837BD46B9
:1034E00080BD80B483B000AF786000BF0C37BD46AC
:1034F0005DF8047B704780B483B000AF786000BF94
:103500000C37BD465DF8047B704780B483B000AFD4
:10351000786000BF0C37BD465DF8047B704780B40F
:1035200083B000AF786000BF0C37BD465DF8047B08
:103530007047000080B485B000AF786039607B6868
:103540001B68FB607B68404A934213D07B68B3F1F1
:10355000804F0FD07B683D4A93420BD07B683C4A3A
:10356000934207D07B683B4A934203D07B683A4A38
:10357000934208D1FB6823F07003FB603B685B68F3
:10358000FA681343FB607B682F4A93422BD07B6819
:10359000B3F1804F27D07B682C4A934223D07B68BD
:1035A0002B4A93421FD07B682A4A93421BD07B68E8
:1035B000294A934217D07B68284A934213D07B68EC
:1035C000274A93420FD07B68264A93420BD07B68F0
:1035D000254A934207D07B68244A934203D07B68F4
:1035E000234A934208D1FB6823F44073FB603B6895
:1035F000DB68FA681343FB60FB6823F080023B68DA
:103600005B691343FB607B68FA681A603B689A68E1
:103610007B68DA623B681A687B689A627B680A4A50
:10362000934203D07B680C4A934203D13B681A69EA
:103630007B681A637B6801225A6100BF1437BD465C
:103640005DF8047B704700BF0000014000040040AB
:1036500000080040000C0040000401400040014010
:10366000004401400048014000180040001C004098
:103670000020004080B483B000AF786000BF0C37FA
:10368000BD465DF8047B704780B483B000AF7860BE
:1036900000BF0C37BD465DF8047B704780B483B033
:1036A00000AF786000BF0C37BD465DF8047B704703
:1036B000B0B58EB004AF9F4BC0221A709D4BA822AC
:1036C0005A709C4B00229A709A4B0A22DA709A4BDD
:1036D000FF221A70984BFF225A70974BFF229A7064
:1036E000954B0022DA70954B00221A70934B002202
:1036F0005A70924B00229A70904B0022DA7000218F
:10370000002007F075FA8B4B1B781A06894B5B7803
:103710001B041A43874B9B781B021343854AD278BC
:1037200013431A06834B1B781906824B5B781B04E4
:103730001943804B9B781B020B437E49C9780B438E
:103740001B0203F47F031A437A4B1B781906794B4B
:103750005B781B041943774B9B781B020B4375491D
:10376000C9780B431B0A03F47F431A43714B1B7840
:103770001906704B5B781B0419436E4B9B781B0238
:103780000B436C49C9780B431B0E13436C4A1360FF
:10379000694B1B781A06684B5B781B041A43664B0F
:1037A0009B781B021343644AD27813431A06624B78
:1037B0001B781906604B5B781B0419435E4B9B78A2
:1037C0001B020B435C49C9780B431B0203F47F03C4
:1037D0001A43594B1B781906574B5B781B04194346
:1037E000554B9B781B020B435349C9780B431B0A6B
:1037F00003F47F431A43504B1B7819064E4B5B78FA
:103800001B0419434C4B9B781B020B434A49C97854
:103810000B431B0E13434B4A1360484B1B781A068D
:10382000464B5B781B041A43444B9B781B021343A3
:10383000424AD27813431A06404B1B7819063F4B75
:103840005B781B0419433D4B9B781B020B433B49A0
:10385000C9780B431B0203F47F031A43374B1B78D1
:103860001906364B5B781B041943344B9B781B02BB
:103870000B433249C9780B431B0A03F47F431A43B5
:103880002E4B1B7819062D4B5B781B0419432B4BD1
:103890009B781B020B432949C9780B431B0E13432A
:1038A000294A1360294B0293294B0193002300936B
:1038B000254B244A224927480AF0F8F825480AF0FF
:1038C000A7FA244B93F82D3003F00403002B03D008
:1038D00020480AF0ADFA02E01E480AF015FB1E4926
:1038E0001C480AF0A7FB00233B6200237B6207F120
:1038F00020030121184600F091FD0246174B1A6083
:10390000174B144A1A60154B1B68154A5360154B28
:103910003C1D1D460FCD0FC495E8070084E8070045
:103920003B1D0F49184600F07CFC00BF2837BD4600
:10393000B0BD00BFE0420020DC420020A0420020D9
:10394000D8420020E4420020E842002001AB0008F9
:10395000BD3F0008A44200209D400008F402002062
:1039600098420020DC75010880B58EB000AF786009
:1039700007F1240300221A605A609A60DA601A6123
:103980007B681B68524A934240F09E80514A514BDB
:103990001B6B43F0007313634E4B1B6B03F0007300
:1039A0003B623B6A4B4A4B4B1B6B43F08063136398
:1039B000484B1B6B03F08063FB61FB69454A454B39
:1039C0001B6B43F000631363424B1B6B03F00063FC
:1039D000BB61BB693F4A3F4B1B6B43F0040313635E
:1039E0003C4B1B6B03F004037B617B69394A394B09
:1039F0001B6B43F001031363364B1B6B03F0010396
:103A00003B613B69334A334B1B6B43F00203136347
:103A1000304B1B6B03F00203FB60FB682D4A2D4B00
:103A20001B6B43F0400313632A4B1B6B03F04003F3
:103A3000BB60BB6832237B620223BB620023FB6254
:103A400003233B630B237B6307F1240319462248BE
:103A5000FEF73CFC86237B620223BB620023FB62F1
:103A600003233B630B237B6307F1240319461B48A5
:103A7000FEF72CFC4FF400537B620223BB62002351
:103A8000FB6203233B630B237B6307F1240319468B
:103A90001348FEF71BFC4FF420537B620223BB62EA
:103AA0000023FB6203233B630B237B6307F12403A7
:103AB00019460C48FEF70AFC002205213D20FDF7BF
:103AC00059FA3D20FDF772FA00BF3837BD4680BD78
:103AD000008002400038024000080240000002401E
:103AE000000402400018024080B582B000AF786048
:103AF000044B1B68184600F013FD00BF0837BD4695
:103B000080BD00BFF8020020B0B590B000AF786073
:103B10000023BB63604B614A1A605F4B01225A600D
:103B20005D4B4FF480429A605B4B4FF40062DA6069
:103B3000594B00221A82002387F83030802387F8FF
:103B40003130E12387F83230002387F83330002307
:103B500087F83430002387F835304F4A07F13003B7
:103B600053614D4B01229A614B4B0022DA614A4B63
:103B70004FF400021A624848FDF726FA034687F818
:103B80003F3097F83F30002B08D17B6893F82D30F9
:103B900043F00403DAB27B6883F82D200423404A03
:103BA00040493D48FDF7ACFB04233F4A3F493A48B2
:103BB000FDF70FFC7B68062283F82C20364B5B69EF
:103BC0001A787B6883F82620334B5B695A787B68C8
:103BD00083F82720304B5B699A787B6883F828202C
:103BE0002D4B5B69DA787B6883F829202A4B5B6967
:103BF0001A797B6883F82A20274B5B695A797B689E
:103C000083F82B207B6840F2DC529A847B6893F81F
:103C10002D3043F00A03DAB27B6883F82D200023AD
:103C2000BB620023FB6207F128030121184600F064
:103C3000F5FB02461E4B1A601E4B07F10C041D4695
:103C40000FCD0FC495E8070084E8070007F10C03C7
:103C50007968184600F0E5FA0F48FDF7E2FE07F133
:103C600038031A461D210C48FDF70DFEBB6B43F0CF
:103C70000B03BB63BB6B1A461D210748FDF76BFEA8
:103C800007F138031A461D210348FDF7FCFD00BF6C
:103C90004037BD46B0BD00BFBC5B00200080024085
:103CA000045C0020EC4200206C4300203C5B0020C0
:103CB000F80200200076010880B58AB000AF786075
:103CC00039604B4BDB6A9B68FB6100237B610023FF
:103CD0003B610023FB600023BB60454BDB6ABB619B
:103CE00000233B613B683B625AE0BB691B68002BC9
:103CF00003DAF82387F827305CE03B6A5B89FB60D6
:103D00000023BB602FE0FA693B69D0183B6A5A6810
:103D1000BB68D1183A6940F2F4539B1A1A4612F064
:103D20000CFABB69DB68BB61BB691B68002B03DA5B
:103D3000F82387F827303DE0BB699B68FB613A694F
:103D4000FB681344A3F2F453FB60BA683B69D31ACF
:103D500003F2F453BB607A693B69D31A03F2F4535C
:103D60007B6100233B61FA683B69134440F2F452E3
:103D70009342C8D8FA693B69D0183B6A5A68BB6855
:103D80001344FA68194612F0D8F93A69FB681344EB
:103D90003B617A69FB6813447B613B6A1B683B6249
:103DA0003B6A002BA1D179691148FDF77FFB002305
:103DB00087F827300E4B1A6841F2140313441B682E
:103DC00003F02003002B0DD0094B1A6841F21403B5
:103DD000134420221A60064B1A6841F2040313446C
:103DE00000221A6097F9273018462837BD4680BD53
:103DF000BC5B002080B58CB000AF78600023FB6214
:103E00000023BB620023FB810023FB610023BB6115
:103E100000237B6100233B614F48FDF731FC0346E3
:103E2000002B01D0002392E04B4BDB6BFB814A4B14
:103E30001B6C7B62FB89002B07D0FB894FF4C1729E
:103E4000194600200AF0C0F9F862FB6A002B4BD03B
:103E5000414B1B6B3B620023FB61FB6ABB6240E092
:103E6000BB6A5B897B610023BB6121E0BB6A5A6846
:103E7000BB69D0187A6AFB69D118FA6940F2F45329
:103E80009B1A1A4612F059F93B6ADB683B623B6A9F
:103E90009B687B62FA697B691344A3F2F4537B61EC
:103EA000BA69FB69D31A03F2F453BB610023FB61C7
:103EB0007A69FB69134440F2F4529342D6D8BB6A44
:103EC0005A68BB69D0187A6AFB6913447A69194643
:103ED00012F033F9FA697B691344FB61BB6A1B6812
:103EE000BB62BB6A002BBBD11B4B1B6B3B6200232D
:103EF0003B610BE03B6A1B6843F000423B6A1A607F
:103F00003B6ADB683B623B6901333B61124B9A6B56
:103F10003B699A42EED8104B00229A630E4B1A6806
:103F200041F2140313441B6803F08003002B0DD0EF
:103F3000094B1A6841F21403134480221A60064B9D
:103F40001A6841F20803134400221A60FB6A1846FB
:103F50003037BD4680BD00BFBC5B002080B584B05B
:103F600000AF78607B68FB60124B1B684FF0FF313D
:103F7000184600F087FA0346002BF5D10E4812F0E0
:103F80001FF8F868FFF736FFB860BB68002B0AD04F
:103F9000FB681B69F968B86898470346002B02D094
:103FA000B8680AF025FC044812F019F8BB68002B29
:103FB000E4D1D9E7F80200201474002080B582B063
:103FC00000AF78607B68002B06D10E4B40F23522A3
:103FD0000D490E4812F0F2F87B68732283F82E2008
:103FE0007B68742283F82F207B68094A5A617B68BA
:103FF000084A9A617868FFF787FD0023184608375A
:10400000BD4680BD1C760108387601084876010857
:10401000A9B50008B93C000880B500AFFCF7C6FEA2
:104020000346184680BD000080B584B000AF7860BC
:104030000023BB607B68FB6007F108031A4601217F
:104040001548FDF720FCBB6803F00403BB60FB6868
:104050001B6893F82D3003F00403002B08D1BB68D4
:10406000002B05D0FB681B68184609F07FFF0FE0A6
:10407000FB681B6893F82D3003F00403002B07D076
:10408000BB68002B04D1FB681B68184609F0A2FF2F
:10409000C82000F012F9CFE7BC5B002080B584B0E7
:1040A00000AF78600023FB600023BB607B6893F85F
:1040B0002D3003F00403002B5BD0334B5B68002BE7
:1040C00040D04FF4805200212F48FDF744FCFCF70C
:1040D0006DFE0346FB6007F108031A4601212A48DA
:1040E000FDF7D1FBFCF762FE0246FB68D31AB3F57D
:1040F0007A7F26D8BB6803F02003002BEBD007F1B2
:1041000008031A4610212048FDF7BDFBBB6803F0E9
:104110000403002B04D01C4B4FF40062DA6002E071
:10412000194B0022DA60BB6803F00203002B03D0B6
:10413000154B00229A6014E0134B4FF480429A60B2
:104140000FE000BF104BDB68DB089AB20E4B9B6898
:104150005B089BB213439BB21A4600210A48FDF745
:10416000FAFB00210848FDF7BBFC0748FDF759FCA6
:1041700002E00548FDF784FC786800F007F800BF0E
:104180001037BD4680BD00BFBC5B002080B483B04B
:1041900000AF786000BF0C37BD465DF8047B704708
:1041A00080B485B000AF0346FB800023FB60B7F905
:1041B0000630842B05D0B7F90620FB68134403337F
:1041C000FB60FB6818461437BD465DF8047B7047FA
:1041D00080B483B000AFEFF305837B607B68002B76
:1041E00014BF01230023DBB218460C37BD465DF82F
:1041F000047B704780B500AF02F05CF900231846DD
:1042000080BD80B500AFFFF7E3FF0346002B03D06E
:1042100002F06EFA034602E002F05AFA034618462C
:1042200080BDF0B589B004AF786039607B685B69A8
:10423000002B20D07B689B69002B1CD07B685C68BE
:104240007B681D687B681E697B68B3F90830184677
:10425000FFF7A6FF01467B685B697A689269029264
:10426000019300913B6832462946204601F054FFF5
:104270000346FB601CE07B685C687B681D687B68AC
:104280001B699EB27B68B3F908301846FFF788FFB8
:10429000024607F10C03019300923B68324629461F
:1042A000204601F099FF0346012B01D0002300E0D6
:1042B000FB6818461437BD46F0BD80B584B000AF2A
:1042C00078607B68FB60FB68002B01D0FB6800E036
:1042D0000123184602F0B8F8002318461037BD46EF
:1042E00080BD80B582B000AF78607B685B68002BD2
:1042F00007D07B685B681946012001F098F80346F7
:1043000003E0012001F07BF8034618460837BD465C
:1043100080BD000080B584B000AF786039600023B4
:10432000BB607B68002B01D180233AE00023FB6057
:104330003B68B3F1FF3F03D14FF0FF33FB6009E06F
:104340003B68002B06D03B68FB60FB68002B01D16B
:104350000123FB60FFF73CFF0346002B17D007F15A
:1043600008031A460021786801F09EFC0346012BE1
:1043700001D0FF2315E0BB68002B11D00B4B4FF091
:1043800080521A60BFF34F8FBFF36F8F08E0F96858
:10439000786801F079FB0346012B01D0FF2300E090
:1043A000002318461037BD4680BD00BF04ED00E075
:1043B00080B584B000AF78600023FB600023BB6051
:1043C000FFF706FF0346002B16D007F10803194636
:1043D000786801F0E5F90346012B01D0FF2317E0CF
:1043E000BB68002B13D00C4B4FF080521A60BFF308
:1043F0004F8FBFF36F8F0AE00023002200217868FF
:1044000001F030F80346012B01D0FF23FB60FB686D
:1044100018461037BD4680BD04ED00E080B586B07B
:1044200002AF786039607B685B68002B10D03B6816
:10443000012B0BD17B685A6803230093134600229B
:104440000021012000F0E4FE034616E0002314E002
:104450003B68012B10D103220021012000F055FF01
:10446000F860FB68002B05D0002300220021F868CB
:1044700000F0F8FFFB6800E0002318461037BD4647
:1044800080BD000080B584B000AF78603960002343
:10449000BB607B68002B01D180233AE00023FB60E6
:1044A0003B68B3F1FF3F03D14FF0FF33FB6009E0FE
:1044B0003B68002B06D03B68FB60FB68002B01D1FA
:1044C0000123FB60FFF784FE0346002B17D007F1A2
:1044D00008031A460021786801F0E6FB0346012B29
:1044E00001D0FF2315E0BB68002B11D00B4B4FF020
:1044F00080521A60BFF34F8FBFF36F8F08E0F968E7
:10450000786801F0C1FA0346012B01D0FF2300E0D7
:10451000002318461037BD4680BD00BF04ED00E003
:1045200080B584B000AF78600023FB600023BB60DF
:10453000FFF74EFE0346002B16D007F1080319467D
:10454000786801F02DF90346012B01D0FF2317E015
:10455000BB68002B13D00C4B4FF080521A60BFF396
:104560004F8FBFF36F8F0AE000230022002178688D
:1045700000F078FF0346012B01D0FF23FB60FB68AE
:1045800018461037BD4680BD04ED00E080B582B00E
:1045900000AF7860FFF71CFE0346002B01D082239A
:1045A00003E0786801F041FC002318460837BD4657
:1045B00080BD90B585B002AF786039607B689B683C
:1045C000002B12D07B68DB68002B0ED07B6818684C
:1045D0007B6859687B689A687B68DC680023009375
:1045E000234600F015FE034608E07B6818687B68E8
:1045F0005B680022194600F088FE034618460C3717
:10460000BD4690BD80B586B000AFF860B9607A60F5
:1046100000233B617B687B617B69002B01D1012317
:104620007B61FFF7D5FD0346002B18D007F1100280
:1046300007F108010023F86801F016F80346012B82
:1046400001D0FF2318E03B69002B14D00C4B4FF036
:1046500080521A60BFF34F8FBFF36F8F0BE007F1EB
:10466000080100237A69F86800F0FCFE0346012B7C
:1046700001D0FF2300E0002318461837BD4680BD57
:1046800004ED00E090B58BB000AFF860B9607A60DF
:10469000BB68FB610023BB61BB68002B0AD1802390
:1046A0007B61FB681C4607F1140393E8070084E86C
:1046B000070054E000233B6200237B627B68B3F178
:1046C000FF3F03D14FF0FF337B6209E07B68002B93
:1046D00006D07B687B627B6A002B01D101237B6261
:1046E000FFF776FD0346002B1CD007F1200207F1EF
:1046F000140304331946B86801F0D6FA0346012BB7
:1047000002D110237B6101E000237B613B6A002B17
:104710001DD0154B4FF080521A60BFF34F8FBFF37F
:104720006F8F14E007F1140304337A6A1946B868EE
:1047300001F0C8F80346012B02D110237B6106E08B
:104740007B6A002B01D1002300E040237B61FB68E2
:104750001C4607F1140393E8070084E80700F86893
:104760002C37BD4690BD00BF04ED00E080B582B09F
:1047700000AF7860FFF72CFD0346002B04D078686B
:1047800001F034FB034603E0786801F010FB0346B8
:1047900018460837BD4680BD80B582B000AF78604E
:1047A000FFF716FD0346002B01D0822303E0786853
:1047B00001F03BFB002318460837BD4680BD80B49E
:1047C00083B000AF78607B6803F108027B685A60B1
:1047D0007B684FF0FF329A607B6803F108027B68C8
:1047E000DA607B6803F108027B681A617B6800224B
:1047F0001A6000BF0C37BD465DF8047B704780B47B
:1048000083B000AF78607B6800221A6100BF0C376C
:10481000BD465DF8047B704780B485B000AF78601A
:1048200039607B685B68FB603B68FA685A60FB68CC
:104830009A683B689A60FB689B683A685A60FB68B4
:104840003A689A603B687A681A617B681B685A1CF0
:104850007B681A6000BF1437BD465DF8047B704763
:1048600080B485B000AF786039603B681B68BB607E
:10487000BB68B3F1FF3F03D17B681B69FB600CE0B1
:104880007B680833FB6002E0FB685B68FB60FB68E9
:104890005B681A68BB689A42F6D9FB685A683B683D
:1048A0005A603B685B683A689A603B68FA689A604D
:1048B000FB683A685A603B687A681A617B681B68D3
:1048C0005A1C7B681A6000BF1437BD465DF8047B34
:1048D000704780B485B000AF78607B681B69FB606F
:1048E0007B685B687A6892689A607B689B687A6884
:1048F00052685A60FB685A687B689A4203D17B68A9
:104900009A68FB685A607B6800221A61FB681B6822
:104910005A1EFB681A60FB681B6818461437BD46B0
:104920005DF8047B7047000080B485B000AFF8608C
:10493000B9607A60FB68043BFB60FB684FF08072F3
:104940001A60FB68043BFB60BB6823F00102FB6854
:104950001A60FB68043BFB600C4AFB681A60FB684A
:10496000143BFB607A68FB681A60FB68043BFB60E1
:10497000FB686FF002021A60FB68203BFB60FB687B
:1049800018461437BD465DF8047B7047914900080E
:1049900080B485B000AF00237B60134B1B68B3F17C
:1049A000FF3F0BD04FF0500372B683F31188BFF373
:1049B0006F8FBFF34F8F62B6FB60FEE74FF050037F
:1049C00072B683F31188BFF36F8FBFF34F8F62B658
:1049D000BB6000BF7B68002BFCD000BF1437BD4616
:1049E0005DF8047B704700BF0C0000200000000051
:1049F000074B19680868B0E8F04F80F30988BFF3E7
:104A00006F8F4FF0000080F311887047AFF3008084
:104A10001C3F002000BF00BF08480068006880F30A
:104A200008884FF0000080F3148862B661B6BFF3C7
:104A30004F8FBFF36F8F00DF00BF00BF08ED00E0B6
:104A400080B584B000AF364BFB60FB681B78DBB2EF
:104A50007B60FB68FF221A70FB681B78DBB2FB707F
:104A6000FB78DBB203F05003DAB22E4B1A702E4BF8
:104A700007221A6009E02C4B1B68013B2A4A13608D
:104A8000FB78DBB25B00DBB2FB70FB78DBB203F0E0
:104A90008003802BEFD0244B1B68C3F10703042B4A
:104AA0000BD04FF0500372B683F31188BFF36F8FB2
:104AB000BFF34F8F62B6BB60FEE71B4B1B681B0248
:104AC000194A1360184B1B6803F4E063164A13601D
:104AD0007B68DAB2FB681A70144A144B1B6843F403
:104AE00070031360114A114B1B6843F0704313604D
:104AF00000F0D4F80E4B00221A6000F0F3F80D4AD3
:104B00000C4B1B6843F040431360FFF785FF01F037
:104B1000BBFEFFF73DFF002318461037BD4680BDA2
:104B200000E400E0FC0200200003002020ED00E093
:104B30000C00002034EF00E080B483B000AF4FF0F1
:104B4000500372B683F31188BFF36F8FBFF34F8F9B
:104B500062B67B600F4B1B6801330E4A13600D4B2E
:104B60001B68012B10D10C4B1B68DBB2002B0BD048
:104B70004FF0500372B683F31188BFF36F8FBFF30A
:104B80004F8F62B63B60FEE700BF0C37BD465DF855
:104B9000047B70470C00002004ED00E080B483B07B
:104BA00000AF124B1B68002B0BD14FF0500372B6B5
:104BB00083F31188BFF36F8FBFF34F8F62B67B60B3
:104BC000FEE70A4B1B68013B084A1360074B1B6852
:104BD000002B04D100233B603B6883F3118800BFA6
:104BE0000C37BD465DF8047B704700BF0C00002009
:104BF000EFF30980BFF36F8F154B1A681EF0100F8B
:104C000008BF20ED108A20E9F04F10602DE909005F
:104C10004FF0500072B680F31188BFF34F8FBFF38F
:104C20006F8F62B601F030FE4FF0000080F3118804
:104C300009BC19680868B0E8F04F1EF0100F08BFF3
:104C4000B0EC108A80F30988BFF36F8F704700BF04
:104C50001C3F002000BF00BF80B582B000AF4FF006
:104C6000500372B683F31188BFF36F8FBFF34F8F7A
:104C700062B67B6001F04EFD0346002B03D0064B6D
:104C80004FF080521A6000233B603B6883F3118829
:104C900000BF0837BD4680BD04ED00E080B400AF22
:104CA0000B4B00221A600B4B00221A600A4A0B4B76
:104CB0001B680B49A1FB03139B09013B1360044BC9
:104CC00007221A6000BFBD465DF8047B704700BF35
:104CD00010E000E018E000E014E000E00000002038
:104CE000D34D6210DFF80C00016841F470010160DF
:104CF000704700BF88ED00E080B485B000AFEFF3EF
:104D00000583FB60FB680F2B15D9184AFB68134419
:104D10001B78FB72164B1B78FA7A9A420BD24FF033
:104D2000500372B683F31188BFF36F8FBFF34F8FB9
:104D300062B67B60FEE70F4B1B6803F4E0620E4B2C
:104D40001B689A420BD94FF0500372B683F3118857
:104D5000BFF36F8FBFF34F8F62B63B60FEE700BFBC
:104D60001437BD465DF8047B704700BFF0E300E0F8
:104D7000FC0200200CED00E00003002080B58AB0AA
:104D800000AF78600023FB6101F0F6FB5A4B1B6813
:104D9000002B01D100F016F9584B1A687B681340BC
:104DA000002B40F090807B68002B1ED008227B688F
:104DB00013447B607B6803F00703002B15D07B68EE
:104DC00023F0070308337B607B6803F00703002BA5
:104DD0000BD04FF0500372B683F31188BFF36F8F7F
:104DE000BFF34F8F62B67B61FEE77B68002B6AD012
:104DF000434B1B687A689A4265D8424B3B62414BF1
:104E00001B687B6204E07B6A3B627B6A1B687B6297
:104E10007B6A5A687B689A4203D27B6A1B68002BC4
:104E2000F1D1354B1B687A6A9A424CD03B6A1B68B9
:104E300008221344FB617B6A1A683B6A1A607B6A2A
:104E40005A687B68D21A08235B009A4220D97A6A92
:104E50007B681344BB61BB6903F00703002B0BD0D5
:104E60004FF0500372B683F31188BFF36F8FBFF317
:104E70004F8F62B63B61FEE77B6A5A687B68D21A45
:104E8000BB695A607B6A7A685A60B86900F0FCF8BE
:104E90001B4B1A687B6A5B68D31A194A1360184B5C
:104EA0001A68194B1B689A4203D2154B1B68164AA5
:104EB00013607B6A5A68114B1B681A437B6A5A60FD
:104EC0007B6A00221A6001F065FBFB6903F00703AF
:104ED000002B0BD04FF0500372B683F31188BFF351
:104EE0006F8FBFF34F8F62B6FB60FEE7FB6918461A
:104EF0002837BD4680BD00BF0C3F0020183F002072
:104F0000103F0020043F0020143F002080B586B0F1
:104F100000AF78607B687B617B68002B4AD00823F8
:104F20005B427A6913447B617B693B613B695A68E8
:104F3000224B1B681340002B0BD14FF0500372B66D
:104F400083F31188BFF36F8FBFF34F8F62B6FB609F
:104F5000FEE73B691B68002B0BD04FF0500372B685
:104F600083F31188BFF36F8FBFF34F8F62B6BB60BF
:104F7000FEE73B695A68114B1B681340002B19D0A0
:104F80003B691B68002B15D13B695A680B4B1B68AA
:104F9000DB431A403B695A6001F0EEFA3B695A68FC
:104FA000074B1B681344064A1360386900F06CF81D
:104FB00001F0F0FA00BF1837BD4680BD183F002051
:104FC000103F002080B485B000AF4FF47053BB6039
:104FD000274BFB60FB6803F00703002B0CD0FB683A
:104FE0000733FB60FB6823F00703FB60BA68FB68CC
:104FF000D31A1F4A1344BB60FB687B601D4A7B6861
:1050000013601C4B00225A607A68BB681344FB6033
:105010000822FB689B1AFB60FB6823F00703FB6018
:10502000FB68154A1360144B1B6800225A60124B30
:105030001B6800221A607B683B603B68FA68D21AE2
:105040003B685A600C4B1A683B681A603B685B68A7
:105050000A4A13603B685B68094A1360094B4FF0CA
:1050600000421A6000BF1437BD465DF8047B7047EC
:1050700004030020043F00200C3F0020143F0020C8
:10508000103F0020183F002080B485B000AF78604A
:10509000284BFB6002E0FB681B68FB60FB681A683A
:1050A0007B689A42F7D3FB68BB60FB685B68BA68B1
:1050B0001A447B689A4208D1FB685A687B685B682F
:1050C0001A44FB685A60FB687B607B68BB607B6846
:1050D0005B68BA681A44FB681B689A4218D1FB687F
:1050E0001A68154B1B689A420DD07B685A68FB689A
:1050F0001B685B681A447B685A60FB681B681A6807
:105100007B681A6008E00C4B1A687B681A6003E041
:10511000FB681A687B681A60FA687B689A4202D05A
:10512000FB687A681A6000BF1437BD465DF8047BDF
:10513000704700BF043F00200C3F002080B584B0C2
:1051400000AF786039607B68FB60FB68002B0BD197
:105150004FF0500372B683F31188BFF36F8FBFF324
:105160004F8F62B6BB60FEE7FFF7E6FCFB681A688C
:10517000FB68DB6BF968096C01FB03F31A44FB68FD
:105180009A60FB6800229A63FB681A68FB685A60A1
:10519000FB681A68FB68DB6B013BF968096C01FB73
:1051A00003F31A44FB68DA60FB68FF2283F84420AB
:1051B000FB68FF2283F845203B68002B14D1FB6875
:1051C0001B69002B1AD0FB681033184601F0DEFB78
:1051D0000346002B12D00D4B4FF080521A60BFF3E4
:1051E0004F8FBFF36F8F09E0FB6810331846FFF74E
:1051F000E6FAFB6824331846FFF7E1FAFFF7CEFC26
:10520000012318461037BD4680BD00BF04ED00E005
:1052100080B58EB002AFF860B9607A603B60FB6821
:10522000002B0BD14FF0500372B683F31188BFF3FC
:105230006F8FBFF34F8F62B6BB62FEE73B68002BF8
:105240000BD14FF0500372B683F31188BFF36F8F09
:10525000BFF34F8F62B67B62FEE77B68002B02D004
:10526000BB68002B01D0012300E00023002B0BD1F1
:105270004FF0500372B683F31188BFF36F8FBFF303
:105280004F8F62B63B62FEE77B68002B02D1BB68A2
:10529000002B01D1012300E00023002B0BD14FF0A4
:1052A000500372B683F31188BFF36F8FBFF34F8F34
:1052B00062B6FB61FEE748237B617B69482B0BD01C
:1052C0004FF0500372B683F31188BFF36F8FBFF3B3
:1052D0004F8F62B6BB61FEE77B693B68FB62FB6A8E
:1052E000002B0DD0FB6A012283F8462097F8382066
:1052F000FB6A009313467A68B968F86800F046F8CC
:10530000FB6A18463037BD4680BD80B58AB002AF13
:10531000F860B9601346FB71FB68002B0BD14FF0AE
:10532000500372B683F31188BFF36F8FBFF34F8FB3
:1053300062B63B61FEE7BB68002B02D10023FB6134
:1053400004E0FB68BA6802FB03F3FB61FB694833C6
:105350001846FFF713FDB861BB69002B11D0BB697C
:105360007B617B6948337B61BB69002283F84620FF
:10537000FA79BB69009313467A69B968F86800F056
:1053800005F8BB6918462037BD4680BD80B584B09E
:1053900000AFF860B9607A60FB70BB68002B03D186
:1053A000BB69BA691A6002E0BB697A681A60BB69B6
:1053B000FA68DA63BB69BA681A640121B869FFF751
:1053C000BDFE00BF1037BD4680BD80B582B000AFC6
:1053D00078607B68002B0ED07B6800229A607B6827
:1053E00000221A607B680022DA600023002200217C
:1053F000786800F037F800BF0837BD4680BD80B53B
:1054000086B000AF0346FB7101237B6100233B6143
:10541000FB791A4639697869FFF777FFF860F86811
:10542000FFF7D3FFFB6818461837BD4680BD80B52F
:1054300088B002AF03463960FB7101237B61002312
:105440003B61FB7900933B68002239697869FFF77B
:10545000DFFEF860F868FFF7B8FFFB6818461837FA
:10546000BD4680BD80B58EB000AFF860B9607A608F
:105470003B6000237B63FB683B633B6B002B0BD1E2
:105480004FF0500372B683F31188BFF36F8FBFF3F1
:105490004F8F62B6BB62FEE7BB68002B03D13B6B4C
:1054A0001B6C002B01D1012300E00023002B0BD14A
:1054B0004FF0500372B683F31188BFF36F8FBFF3C1
:1054C0004F8F62B67B62FEE73B68022B03D13B6BDA
:1054D000DB6B012B01D1012300E00023002B0BD15A
:1054E0004FF0500372B683F31188BFF36F8FBFF391
:1054F0004F8F62B63B62FEE701F006FC0346002BCD
:1055000002D17B68002B01D1012300E00023002B96
:105510000BD14FF0500372B683F31188BFF36F8F36
:10552000BFF34F8F62B6FB61FEE7FFF705FB3B6BF6
:105530009A6B3B6BDB6B9A4202D33B68022B29D1FF
:105540003A68B968386B00F0ACFCF8623B6B5B6A98
:10555000002B10D03B6B2433184601F017FA03469A
:10556000002B13D03F4B4FF080521A60BFF34F8F88
:10557000BFF36F8F0AE0FB6A002B07D0394B4FF067
:1055800080521A60BFF34F8FBFF36F8FFFF706FB98
:10559000012363E07B68002B03D1FFF7FFFA0023B0
:1055A0005CE07B6B002B06D107F11403184601F079
:1055B00051FA01237B63FFF7F1FA00F0DDFFFFF7FB
:1055C000BBFA3B6B93F844305BB2B3F1FF3F03D1BE
:1055D0003B6B002283F844203B6B93F845305BB271
:1055E000B3F1FF3F03D13B6B002283F84520FFF767
:1055F000D5FA3A1D07F114031146184601F040FA96
:105600000346002B24D1386B00F043FD0346002BEA
:1056100018D03B6B10337A681146184601F090F9A8
:10562000386B00F0CEFC00F0B5FF0346002B7FF492
:105630007CAF0C4B4FF080521A60BFF34F8FBFF31B
:105640006F8F72E7386B00F0BCFC00F0A3FF6CE7D3
:10565000386B00F0B6FC00F09DFF00231846383789
:10566000BD4680BD04ED00E080B58EB000AFF860AF
:10567000B9607A603B60FB683B633B6B002B0BD1EE
:105680004FF0500372B683F31188BFF36F8FBFF3EF
:105690004F8F62B67B62FEE7BB68002B03D13B6B8A
:1056A0001B6C002B01D1012300E00023002B0BD148
:1056B0004FF0500372B683F31188BFF36F8FBFF3BF
:1056C0004F8F62B63B62FEE73B68022B03D13B6B18
:1056D000DB6B012B01D1012300E00023002B0BD158
:1056E0004FF0500372B683F31188BFF36F8FBFF38F
:1056F0004F8F62B6FB61FEE7FFF7FEFAEFF3118210
:105700004FF0500372B683F31188BFF36F8FBFF36E
:105710004F8F62B6BA617B61BB69FB623B6B9A6B70
:105720003B6BDB6B9A4202D33B68022B2CD13B6B69
:1057300093F8453087F82B303A68B968386B00F039
:10574000B0FB97F92B30B3F1FF3F12D13B6B5B6A93
:10575000002B16D03B6B2433184601F017F9034693
:10576000002B0ED07B68002B0BD07B6801221A60C7
:1057700007E097F82B300133DBB25AB23B6B83F86A
:10578000452001237B6301E000237B63FB6A3B61CF
:105790003B6983F311887B6B18463837BD4680BD63
:1057A00080B58EB000AF786039607B683B633B6B3F
:1057B000002B0BD14FF0500372B683F31188BFF367
:1057C0006F8FBFF34F8F62B63B62FEE73B6B1B6C84
:1057D000002B0BD04FF0500372B683F31188BFF348
:1057E0006F8FBFF34F8F62B6FB61FEE73B6B1B68A9
:1057F000002B03D13B6B9B68002B01D1012300E000
:105800000023002B0BD14FF0500372B683F31188A5
:10581000BFF36F8FBFF34F8F62B6BB61FEE7FFF739
:105820006BFAEFF311824FF0500372B683F31188D5
:10583000BFF36F8FBFF34F8F62B67A613B617B69B5
:10584000FB623B6B9B6BBB623B6BDA6BBB6A9A4246
:105850002BD93B6B93F8453087F82730BB6A5A1C2D
:105860003B6B9A6397F92730B3F1FF3F12D13B6B43
:105870005B6A002B16D03B6B2433184601F086F888
:105880000346002B0ED03B68002B0BD03B68012257
:105890001A6007E097F827300133DBB25AB23B6B4E
:1058A00083F8452001237B6301E000237B63FB6ACF
:1058B000FB60FB6883F311887B6B18463837BD4665
:1058C00080BD000080B58CB000AFF860B9607A6030
:1058D0000023FB62FB68BB62BB6A002B0BD14FF05D
:1058E000500372B683F31188BFF36F8FBFF34F8FEE
:1058F00062B63B62FEE7BB68002B03D1BB6A1B6C40
:10590000002B01D1012300E00023002B0BD14FF02D
:10591000500372B683F31188BFF36F8FBFF34F8FBD
:1059200062B6FB61FEE701F0EFF90346002B02D1FE
:105930007B68002B01D1012300E00023002B0BD159
:105940004FF0500372B683F31188BFF36F8FBFF32C
:105950004F8F62B6BB61FEE7FFF7EEF8BB6A9B6B49
:105960007B627B6A002B1FD0B968B86A00F003FB2A
:105970007B6A5A1EBB6A9A63BB6A1B69002B0FD0F5
:10598000BB6A1033184601F001F80346002B07D01C
:105990003C4B4FF080521A60BFF34F8FBFF36F8FB5
:1059A000FFF7FCF8012369E07B68002B03D1FFF7C8
:1059B000F5F8002362E0FB6A002B06D107F1100323
:1059C000184601F047F80123FB62FFF7E7F800F003
:1059D000D3FDFFF7B1F8BB6A93F844305BB2B3F183
:1059E000FF3F03D1BB6A002283F84420BB6A93F8CF
:1059F00045305BB2B3F1FF3F03D1BB6A002283F8AD
:105A00004520FFF7CBF83A1D07F110031146184661
:105A100001F036F80346002B23D1B86A00F023FBCF
:105A20000346002B17D0BB6A24337A681146184608
:105A300000F086FFB86A00F0C4FA00F0ABFD034640
:105A4000002B89D10F4B4FF080521A60BFF34F8F5C
:105A5000BFF36F8F80E7B86A00F0B3FA00F09AFDE9
:105A60007AE7B86A00F0ADFA00F094FDB86A00F089
:105A7000FAFA0346002B3FF46FAF00231846303785
:105A8000BD4680BD04ED00E080B58EB000AF78600B
:105A9000396000237B637B68FB6200233B63FB6A06
:105AA000002B0BD14FF0500372B683F31188BFF374
:105AB0006F8FBFF34F8F62B63B62FEE7FB6A1B6CD2
:105AC000002B0BD04FF0500372B683F31188BFF355
:105AD0006F8FBFF34F8F62B6FB61FEE701F014F9E1
