:020000040800F2
:1000000000C00120993F0108A9090008AF090008B4
:10001000B5090008BB090008C1090008000000007C
:100020000000000000000000000000006146000821
:10003000C70900080000000031480008794800089E
:10004000E93F0108E93F0108E93F0108E93F0108EC
:10005000E93F0108E93F0108E93F0108E93F0108DC
:10006000E93F0108E93F0108E93F0108E93F0108CC
:10007000E93F0108E93F0108E93F0108E93F0108BC
:10008000E93F0108E93F0108E93F0108E93F0108AC
:10009000E93F0108E93F0108E93F0108E93F01089C
:1000A000E93F0108D5090008E93F0108E93F0108D7
:1000B000E93F0108E93F0108E93F0108E93F01087C
:1000C000E93F0108E93F0108E93F0108E93F01086C
:1000D000E93F0108E93F0108E93F0108E93F01085C
:1000E000E9090008E93F0108E93F0108E93F010883
:1000F000E93F0108E93F0108E93F0108E93F01083C
:10010000E93F0108E93F0108E93F0108E93F01082B
:10011000E93F0108E93F0108E93F0108E93F01081B
:10012000E93F0108E93F0108E93F0108E93F01080B
:10013000E93F01085D0A0008E93F0108E93F0108BD
:10014000E93F0108E93F0108E93F0108E93F0108EB
:10015000E93F0108E93F0108E93F0108E93F0108DB
:10016000E93F0108E93F0108E93F0108E93F0108CB
:10017000E93F0108E93F0108E93F010800000000EC
:04018000E93F01084A
:1001900010B5054C237833B9044B13B10448AFF3C1
:1001A00000800123237010BD8000002000000000AB
:1001B0001054010808B5034B1BB103490348AFF3C2
:1001C000008008BD000000008400002010540108D9
:1001D00053B94AB9002908BF00281CBF4FF0FF31AE
:1001E0004FF0FF3000F07AB9ADF1080C6DE904CEA4
:1001F00000F006F8DDF804E0DDE9022304B0704702
:100200002DE9F0478C460E460446089D002B50D140
:100210008A4217466CD9B2FA82FEBEF1000F0BD0AB
:10022000CEF1200C01FA0EF620FA0CFC02FA0EF7C1
:100230004CEA060C00FA0EF43A0CBCFBF2F9BBB225
:1002400002FB19CC09FB03FA4FEA144848EA0C46B2
:10025000B2450AD9F61909F1FF3180F02581B2457E
:1002600040F22281A9F102093E44A6EB0A06B6FB40
:10027000F2F002FB106600FB03F3A4B244EA06446A
:10028000A34209D9E41900F1FF3280F00B81A342A7
:1002900040F2088102383C440021E41A40EA094057
:1002A000002D62D0002324FA0EF42C606B60BDE8B0
:1002B000F0878B4207D9002D55D0002185E84100F9
:1002C0000846BDE8F087B3FA83F1002940F08F803B
:1002D000B34202D3824200F2FC80841A66EB03062A
:1002E0000120B446002D40D085E81010BDE8F0870D
:1002F00012B90127B7FBF2F7B7FA87FEBEF1000F7C
:1003000035D10121F61B4FEA174C1FFA87F8B6FBCF
:10031000FCF20CFB126608FB02F0230C43EA0646D3
:10032000B04207D9F61902F1FF3302D2B04200F20F
:10033000D2801A46361AB6FBFCF00CFB106608FB9E
:1003400000F8A3B243EA0644A04507D9E41900F136
:10035000FF3302D2A04500F2B9801846A4EB08048E
:1003600040EA02409CE729462846BDE8F08707FAA4
:100370000EF7CEF1200326FA03F24FEA174CB2FB38
:10038000FCF11FFA87F80CFB112206FA0EF620FA90
:1003900003F301FB08F933431E0C46EA0246B1455C
:1003A00000FA0EF409D9F61901F1FF3280F08C80C1
:1003B000B14540F2898002393E44A6EB0906B6FBFE
:1003C000FCF00CFB106200FB08F99EB246EA024604
:1003D000B14507D9F61900F1FF3371D2B1456FD994
:1003E00002383E44A6EB090640EA01418FE7C1F11D
:1003F000200722FA07F88B4048EA030326FA07F49D
:100400004FEA134EB4FBFEF91FFA83FC0EFB1944AE
:100410008E4020FA07F809FB0CFA48EA06084FEA72
:10042000184646EA0444A24502FA01F200FA01F62F
:1004300008D9E41809F1FF3044D2A24542D9A9F104
:1004400002091C44A4EB0A04B4FBFEF00EFB1044AA
:1004500000FB0CFC1FFA88F848EA0444A44507D9BD
:10046000E41800F1FF3E29D2A44527D902381C44E4
:1004700040EA0940A0FB0289A4EB0C0CCC45C24623
:10048000CE4615D312D055B1B6EB0A036CEB0E066F
:1004900006FA07F7CB401F43CE402F606E60002165
:1004A000BDE8F0871046F7E68946DEE64645EAD223
:1004B000B8EB020A69EB030E0138E4E77046D7E7B0
:1004C00018468FE78146BDE7114676E702383C447F
:1004D00044E7084606E7023A3E442BE7704700BF70
:1004E00080B485B000AFF860B9607A60FB68064AF6
:1004F0001A60BB68054A1A607B6880221A6000BFD8
:100500001437BD4680BC70479C000020F0000020DE
:10051000B0B588B000AF00F049FB00F01BF800F068
:100520005FF80A4B3C1D1D460FCD0FC495E8070030
:1005300084E807003B1D0021184603F0BFFC02467B
:10054000034B1A6003F0A3FCFEE700BF345401081C
:100550003842002080B592B000AF07F11803302276
:100560000021184613F080FD3B1D00221A605A60DE
:100570009A60DA601A610123BB610123FB610223E7
:100580003B634FF480037B630823BB63F023FB636F
:1005900002233B6404237B6407F11803184601F02F
:1005A000B9FF0346002B01D000F074F90F237B60E4
:1005B0000223BB600023FB604FF4A0533B614FF468
:1005C00080537B613B1D0321184602F0F3F903467B
:1005D000002B01D000F05EF900BF4837BD4680BD5A
:1005E00080B58AB000AF07F1140300221A605A6088
:1005F0009A60DA601A6100233B61394A384B1B6B01
:1006000043F004031363364B1B6B03F004033B619D
:100610003B690023FB60324A314B1B6B43F0800384
:1006200013632F4B1B6B03F08003FB60FB680023FD
:10063000BB602B4A2A4B1B6B43F001031363284B0F
:100640001B6B03F00103BB60BB6800237B60244A83
:10065000234B1B6B43F002031363214B1B6B03F013
:1006600002037B607B6800233B601D4A1C4B1B6BB5
:1006700043F0400313631A4B1B6B03F040033B60D2
:100680003B68002244F28101164801F008FF4FF454
:1006900000537B614FF48813BB610023FB6107F1BA
:1006A00014031946104801F045FD44F281037B61B3
:1006B0000123BB610023FB6100233B6207F11403AC
:1006C0001946084801F036FD00220521282000F0D7
:1006D00080FB282000F099FB00BF2837BD4680BD75
:1006E00000380240000402400008024080B584B097
:1006F00000AF4F480AF0DCFE03467B6002237B70AC
:1007000041F2883009F040FB03467B800022012142
:10071000022009F065F80246464B1A60454B1B68FB
:10072000B3F1FF3F03D1444813F0CCFC7BE0414BD5
:100730001B6839461022184608F0E0FC0346B3F166
:10074000FF3F03D13C4813F0BDFC6CE0394B186807
:1007500000230122394908F02BFF0346B3F1FF3F84
:1007600003D1374813F0AEFC5CE0324B186800232D
:100770000122344908F006FF0246334B1A60324B1F
:100780001B68B3F1FF3F03D1304813F09BFC49E0F5
:100790002C4B1A782E4BA3FB021359080B465B0017
:1007A0000B44D31ADBB2012B0BD1012201212948C2
:1007B00001F075FE00224FF48141264801F06FFEE2
:1007C000C4E7204B1A78224BA3FB021359080B46AF
:1007D0005B000B44D31ADBB2022B0BD10122802128
:1007E0001C4801F05CFE002244F20101194801F0AE
:1007F00056FEABE7134B1A78154BA3FB02135908AF
:100800000B465B000B44D31ADBB2002B9ED10122B6
:100810004FF480410F4801F042FE002281210D4833
:1008200001F03DFE92E700BF1037BD4680BD00BF1E
:10083000505401083C4200206054010850420020FE
:1008400068540108444200204042002070540108CE
:10085000ABAAAAAA0004024080B582B000AF7860BB
:1008600002F06AFDFFF742FF012003F073FBFBE794
:1008700080B582B000AF78607B681B68044A934201
:1008800001D100F0B5F900BF0837BD4680BD00BFFB
:100890000000014080B400AF72B6FEE780B582B0C0
:1008A00000AF00237B60124A114B5B6C43F4804322
:1008B00053640F4B5B6C03F480437B607B680023C5
:1008C0003B600B4A0A4B1B6C43F080531364084B8C
:1008D0001B6C03F080533B603B6800220F216FF0DC
:1008E000010000F076FA00BF0837BD4680BD00BFAA
:1008F0000038024080B58CB000AF78600023FB6206
:100900000023BB6200227968192000F062FA1920E6
:1009100000F07BFA0023FB601F4A1F4B5B6C43F027
:10092000010353641C4B5B6C03F00103FB60FB6829
:1009300007F1100207F114031146184602F02AFAD3
:1009400002F006FA03465B00FB62FB6A134AA2FB55
:1009500003239B0C013BBB62114B124A1A60104BE4
:1009600040F2E732DA600E4ABB6A53600C4B002259
:100970001A610B4B00229A60094802F03BFA0346C9
:10098000002B04D1064802F08DFA034600E0012353
:1009900018463037BD4680BD0038024083DE1B4319
:1009A000544200200000014080B400AFFEE780B454
:1009B00000AFFEE780B400AFFEE780B400AFFEE713
:1009C00080B400AFFEE780B400AF00BFBD4680BC7E
:1009D0007047000080B500AF024802F0D1FA00BFB6
:1009E00080BD00BF5442002080B582B000AF4FF4FC
:1009F000005001F06DFD4FF40051144801F038FD36
:100A00000346002B1ED000BF4FF400510F4801F0E9
:100A10002FFD0346002BF7D100237B6002E07B68AB
:100A200001337B607B680A4A9342F8DD094B1B68FF
:100A30000133084A1360074B1B68DBB23033DAB26C
:100A4000054B1A7000BF0837BD4680BD0008024044
:100A50005FE316004C4200205042002080B500AFFA
:100A6000024800F0B4FD00BF80BD00BFC45B0020A1
:100A700090B587B000AFF860B9607A6000237B6101
:100A80000AE0BC68631CBB60AFF300800346DBB2C6
:100A900023707B6901337B617A697B689A42F0DB62
:100AA0007B6818461C37BD4690BD80B586B000AF48
:100AB000F860B9607A6000237B6109E0BB685A1C6A
:100AC000BA601B781846AFF300807B6901337B6105
:100AD0007A697B689A42F1DB7B6818461837BD4615
:100AE00080BD000080B485B000AF7860114B1B68FA
:100AF000002B02D10F4B104A1A600E4B1B68FB6093
:100B00000C4B1A687B6813446A46934205D90B4B19
:100B10000C221A604FF0FF3306E0064B1A687B6820
:100B20001344044A1360FB6818461437BD4680BC62
:100B3000704700BFF002002058AB002050AB0020EF
:100B400080B483B000AF78604FF0FF3318460C37A5
:100B5000BD4680BC704780B483B000AF7860396018
:100B60003B684FF400525A60002318460C37BD46CC
:100B700080BC704780B483B000AF78600123184612
:100B80000C37BD4680BC704780B485B000AFF860BC
:100B9000B9607A60002318461437BD4680BC7047A0
:100BA00080B400AF00BFBD4680BC704780B500AFC9
:100BB0000E4A0E4B1B6843F4007313600B4A0B4B39
:100BC0001B6843F480631360084A084B1B6843F4B6
:100BD00080731360032000F0F1F80F20FFF78AFE06
:100BE000FFF75CFE0023184680BD00BF003C0240BA
:100BF00080B400AF054B1B781A46054B1B681344A5
:100C0000034A136000BFBD4680BC70470800002047
:100C10009C42002080B400AF024B1B681846BD46C2
:100C200080BC70479C42002080B584B000AF7860E3
:100C3000FFF7F0FFB8607B68FB60FB68B3F1FF3F34
:100C400005D0094B1B781A46FB681344FB6000BFB4
:100C5000FFF7E0FF0246BB68D21AFB689A42F7D35F
:100C600000BF1037BD4680BD0800002080B485B0AD
:100C700000AF78607B6803F00703FB600C4BDB6818
:100C8000BB60BA684FF6FF031340BB60FB681A02F3
:100C9000BB68134343F0BF6343F40033BB60044AB3
:100CA000BB68D36000BF1437BD4680BC704700BF2F
:100CB00000ED00E080B400AF044BDB681B0A03F0DA
:100CC00007031846BD4680BC704700BF00ED00E03A
:100CD00080B483B000AF0346FB7197F90730002B57
:100CE0000BDB084997F907305B09FA7902F01F021C
:100CF000012000FA02F241F8232000BF0C37BD4664
:100D000080BC704700E100E080B483B000AF0346D0
:100D10003960FB7197F90730002B0ADB0D4997F911
:100D200007303A68D2B21201D2B20B4483F80023E2
:100D30000AE00949FB7903F00F03043B3A68D2B299
:100D40001201D2B20B441A7600BF0C37BD4680BCEC
:100D5000704700BF00E100E000ED00E080B489B022
:100D600000AFF860B9607A60FB6803F00703FB61CD
:100D7000FB69C3F10703042B28BF0423BB61FB6994
:100D80000433062B02D9FB69033B00E000237B619F
:100D90000122BB6902FA03F35A1EBB681A407B6941
:100DA0009A4001217B6901FA03F3591E7B680B40CD
:100DB000134318462437BD4680BC704780B582B0C7
:100DC00000AF78607868FFF751FF00BF0837BD4675
:100DD00080BD80B586B000AF0346B9607A60FB7312
:100DE00000237B61FFF766FF78617A68B9687869EC
:100DF000FFF7B4FF024697F90F3011461846FFF788
:100E000083FF00BF1837BD4680BD80B582B000AFFC
:100E10000346FB7197F907301846FFF759FF00BFEB
:100E20000837BD4680BD000080B588B000AF78604F
:100E30000023FB610023FB60A34BBB6100237B61AC
:100E400000233B617B68002B01D1012375E17B68A6
:100E500093F84430DBB2002B06D17B68002283F884
:100E60004520786802F0C4FB0023BB60974A974B8B
:100E70005B6C43F480435364944B5B6C03F480439A
:100E8000BB60BB68924A924B5B6823F400035360DB
:100E90008F498F4B5A687B681B6A13434B607B6892
:100EA0001B687A68126802F58052126842F00102EB
:100EB00003F580531A60FFF7ADFE786111E0FFF78C
:100EC000A9FE02467B69D31AB3F5FA7F09D97B687C
:100ED000032283F844207B68002283F84520032303
:100EE0002BE17B681B6803F580531B6803F001034B
:100EF000002BE4D17B681B681B69FB61FB6923F055
:100F00001C03FB6101F01AFFB861BB69714A93428F
:100F100008D9BB69704A934204D8FB6943F00803BF
:100F2000FB611AE0BB696C4A934208D9BB696B4A02
:100F3000934204D8FB6943F00C03FB610DE0BB69ED
:100F4000664A934203D9BB69654A934204D9FB6957
:100F500043F00403FB6100E000BF7B681B68FA6993
:100F60001A614FF400420021786800F011FC03463A
:100F7000002B0BD001233B613969786800F0C4FD78
:100F80007B68012283F844200123D6E0FF20FFF78D
:100F90004BFE7B685B68002B00F0A480FFF73AFEF5
:100FA000786107F10C031A460121786800F088FB8C
:100FB000FFF730FE02467B69D31A41F28832934232
:100FC0000FD901233B613969786800F09DFD7B688A
:100FD000012283F844207B68002283F84520032304
:100FE000ABE0FB6803F00403002BDAD04FF480522F
:100FF0000021786800F0CCFB0346002B0BD00123C6
:101000003B613969786800F07FFD7B68012283F8D5
:101010004420012391E0FFF7FDFD786107F10C0307
:101020001A460121786800F04BFBFFF7F3FD0246FA
:101030007B69D31A41F2883293420FD901233B6175
:101040003969786800F060FD7B68012283F84420EC
:101050007B68002283F8452003236EE0FB6803F0E1
:101060002003002BDAD007F10C031A461021786810
:1010700000F026FB0346002B0BD001233B613969AE
:10108000786800F041FD7B68012283F84420012349
:1010900053E0FB6803F00403002B04D07B684FF49B
:1010A0000062DA6002E07B680022DA60FB6803F02D
:1010B0000203002B03D07B6800229A6034E07B6837
:1010C0004FF480429A602FE000879303003802407B
:1010D00000380140FF2C3101BF0E1602FF8693033A
:1010E000FFE0F5057B68DB68DB089AB27B689B68EC
:1010F0005B089BB213439BB21A460021786800F04C
:1011000047FB0346002B0BD001233B61396978680C
:1011100000F0FAFC7B68012283F8442001230CE0F4
:1011200040F6FF70FFF780FD3969786800F0ECFC4D
:101130007B68012283F84420002318462037BD46EF
:1011400080BD00BF80B487B000AFF860B9607A603E
:101150003B6000237B61FB6893F84530012B01D194
:10116000022352E0FB68012283F84520FB6802223B
:1011700083F84420FB68BA68DA6200237B6130E0C0
:101180007B695B01BA6813443B613B694FF4801291
:101190001A607B6940F2F45202FB03F37A6813444D
:1011A0001A463B699A60FB68DB69002B05D13B69F5
:1011B0001B6843F440023B691A603B685A1E7B6916
:1011C0009A4208D97B6901335B01BA6813441A4615
:1011D0003B69DA6002E0BA683B69DA607B69013337
:1011E0007B617A693B689A42CAD3FB681B68BA681C
:1011F00003F5805310331A60FB68012283F8442002
:10120000FB68002283F84520002318461C37BD46A2
:1012100080BC704780B487B000AFF860B9607A6076
:101220003B6000237B61FB6893F84530012B01D1C3
:10123000022356E0FB68012283F84520FB68022266
:1012400083F84420FB68BA689A6200237B6134E02B
:101250007B695B01BA6813443B613B694FF0004214
:101260001A603B6944F2F4525A607B6940F2F452CE
:1012700002FB03F37A6813441A463B699A60FB68E1
:101280009B69012B05D13B695B6823F000423B69F8
:101290005A603B685A1E7B699A4208D97B690133C0
:1012A0005B01BA6813441A463B69DA6002E0BA6827
:1012B0003B69DA607B6901337B617A693B689A42FA
:1012C000C6D3FB681B68BA6803F580530C331A60F9
:1012D000FB68012283F84420FB68002283F8452044
:1012E000002318461C37BD4680BC704780B487B0C9
:1012F00000AF7860396000237B610023FB6000232E
:101300003B617B6893F84530012B01D10223CDE08E
:101310007B68012283F845207B68022283F8442001
:101320003B68002B09D17B68012283F844207B684D
:10133000002283F845200123B8E07B68DB6A1B6844
:10134000002B09DA7B68122283F844207B68002294
:1013500083F845200123A9E03B6840F2F452934210
:1013600015D93B68544AA2FB03239B0A7B613A6868
:10137000514BA3FB02139B0A40F2F45101FB03F310
:10138000D31A002B05D07B6901337B6101E0012377
:101390007B617B69012B1CD17B68DB6A7A68D26A2E
:1013A000126842F040521A607B68DB6A3A68C2F306
:1013B0000C025A607B68DB6A7A68D26A126842F073
:1013C00000421A607B68DB6ADB681A467B68DA6277
:1013D0004BE000233B6144E07B68DB6A7A68D26AB9
:1013E000126822F040521A603B69002B07D17B68DB
:1013F000DB6A7A68D26A126842F080521A607B68AF
:10140000DB6A40F2F4525A607B695A1E3B699A4289
:1014100016D17B68DB6A7A68D26A126842F00052A1
:101420001A607B69254A02FB03F23B68134403F20E
:10143000F453FB607B68DB6AFA68C2F30C025A6003
:101440007B68DB6A7A68D26A126842F000421A60EE
:101450007B68DB6ADB681A467B68DA623B690133CA
:101460003B613A697B699A42B6D37B681B6803F596
:10147000805314331B6803F00403002B0DD07B68EA
:101480001B6803F58053143304221A607B681B68C1
:1014900003F58053043300221A607B68012283F82D
:1014A00044207B68002283F84520002318461C371F
:1014B000BD4680BC704700BF0BB002AC0CFAFFFF0A
:1014C00080B485B000AF78600023FB607B6893F840
:1014D0004530012B01D1022374E07B68012283F89F
:1014E00045207B68022283F844205AE0FB680133E0
:1014F000FB607B689B6A1B6803F44073B3F5007F55
:101500000DD17B689A6A7B681A637B6801229A63B3
:101510007B689B6ADB681A467B689A6241E07B685D
:101520009B6A1B6803F44073002B0BD17B689B6B99
:101530005A1C7B689A637B689B6ADB681A467B68E7
:101540009A622EE07B689A6A7B685A637B689B6B21
:101550005A1C7B689A637B689B6B012B03D17B6869
:101560009A6A7B681A637B689B6A1B681B0CC3F3CF
:101570000D031A1F7B68DA637B681B6B9A687B68B4
:101580001A647B689B6ADB681A467B689A627B6890
:10159000012283F844207B68002283F84520002341
:1015A00010E07B689B6A1B68002B02DBFB68032B47
:1015B0009CD97B68012283F844207B68002283F851
:1015C0004520012318461437BD4680BC704780B5BE
:1015D00082B000AF78607B681B6803F580531433DA
:1015E0001B6803F04003402B12D1786802F0CEF85C
:1015F0007B681B6803F58053143340221A607B68B4
:10160000012283F844207B68002283F845201BE0F8
:101610007B681B6803F5805314331B6803F00103D8
:10162000012B11D1786800F039F87B681B6803F54D
:101630008053143301221A607B68012283F844200E
:101640007B68002283F845207B681B6803F5805384
:1016500014334FF480321A607B681B6803F58053A3
:1016600014331B6803F40043B3F5004F12D17868BC
:1016700000F01DF87B681B6803F5805314334FF4AA
:1016800000421A607B68012283F844207B680022B4
:1016900083F8452000BF0837BD4680BD80B483B0C5
:1016A00000AF786000BF0C37BD4680BC704780B487
:1016B00083B000AF786000BF0C37BD4680BC704778
:1016C00080B586B000AFF8600B467A607B8100235E
:1016D0007B6100233B61FB6893F84430DBB2822BD3
:1016E00001D1022350E0FB68822283F84420FB688A
:1016F0001B681B697B617B6903F01C037B61FB68D2
:101700001B8ADB029BB27A6913437B617B899B0155
:1017100003F4F8637A6913437B617B6923F0020366
:101720007B617B6943F001037B61FB681B687A691D
:101730001A61FFF76FFA386115E0FFF76BFA02469E
:101740003B69D31AB3F5803F09D3FB68012283F8C4
:101750004420FB68002283F84520032314E0FB6843
:101760001B681B697B617B6903F00103002BE4D1DB
:10177000FB681B685B699BB21A467B681A60FB6852
:10178000012283F84420002318461837BD4680BD47
:1017900080B586B000AFF8600B467A607B8100238D
:1017A0007B6100233B61FB6893F84430DBB2422B42
:1017B00001D102234EE0FB68422283F84420FB68FB
:1017C0001B681B697B617B6903F01C037B61FB6801
:1017D0001B8ADB029BB27A6913437B617B899B0185
:1017E00003F4F8637A6913437B617B6943F0020376
:1017F0007B617B6943F001037B61FB681B687A684E
:1018000092B25A61FB681B687A691A61FFF702FAA3
:10181000386115E0FFF7FEF902463B69D31AB3F5CC
:10182000803F09D3FB68012283F84420FB68002233
:1018300083F8452003230DE0FB681B681B697B616F
:101840007B6903F00103002BE4D1FB68012283F8DC
:101850004420002318461837BD4680BD80B582B0AD
:1018600000AF78607B6893F84530012B01D10223EB
:101870001FE07B68012283F845207B68022283F801
:101880004420786800F03EFB786800F075FB7868CB
:1018900000F008FC786800F0A9FB786800F0D4FB41
:1018A0007B68012283F844207B68002283F845206E
:1018B000002318460837BD4680BD80B582B000AF12
:1018C00078607B6893F84530012B01D102231FE03B
:1018D0007B68012283F845207B68022283F844203C
:1018E000786800F09AFB786800F0C5FB786800F033
:1018F00060FB786800F0D6FB786800F020FB7B681E
:10190000012283F844207B68002283F845200023CD
:1019100018460837BD4680BD80B584B000AF7860FA
:1019200039600023FB607B6893F84530012B01D1BF
:101930000223E3E07B68012283F845207B680222D2
:1019400083F844203B68002B00F0B0807B681B6864
:101950001B68FB60FA686B4B1340FB603B681A68BE
:101960003B685B681A433B689B681A433B68DB68CB
:101970001A437B689B681A433B681B691A433B68A0
:101980005B691A437B68DB681A433B689B691A43AF
:101990003B68DB691A433B681B6A1A433B685B6A16
:1019A0001A433B689B6A1343FA681343FB607B68E6
:1019B0001B68FA681A607B681B681B68FB60012063
:1019C000FFF732F97B681B68FA681A607B681B684E
:1019D0003A68D16A3A68126B11433A68526B114304
:1019E0003A68926B11433A68D26B11433A68126CB1
:1019F00011433A68526C11433A68926C0A435A6038
:101A00007B681B685B68FB600120FFF70DF97B6852
:101A10001B68FA685A607B681B683A68D26C9A60E7
:101A20007B681B683A68126DDA607B681B689B698B
:101A3000FB60FA684FF641731340FB603B685B6DD7
:101A40001A043B689B6D1A433B68DB6D1A433B6885
:101A50001B6E1A433B685B6E1A433B689B6E1343D5
:101A6000FA681343FB607B681B68FA689A617B68BD
:101A70001B689B69FB600120FFF7D6F87B681B6839
:101A8000FA689A617B681B683A68D16E3A68126F8F
:101A90000A43DA617B681B68DB69FB600120FFF7A2
:101AA000C3F87B681B68FA68DA611EE07B681B6814
:101AB0001B68FB60FB6823F49043FB607B689A68BB
:101AC0007B68DB681343FA681343FB607B681B6821
:101AD000FA681A607B681B681B68FB600120FFF7CF
:101AE000A3F87B681B68FA681A607B68012283F898
:101AF00044207B68002283F84520002318461037D5
:101B0000BD4680BD0F8120FF80B5B0B000AF7860CA
:101B100039600023C7F8BC303B68002B07D07B68D6
:101B20004FF40062DA607B684FF480429A600023D1
:101B3000BB640023FB6400233B6500237B6500231B
:101B4000BB650023FB657B68DB69002B03D14FF489
:101B500080633B6601E000233B664FF400737B66C5
:101B60000023BB660023FB6600233B6700237B67E3
:101B70000023BB674023FB670023C7F880300023A6
:101B8000C7F884300023C7F888300023C7F88C30AA
:101B90000023C7F890300023C7F894300023C7F81B
:101BA00098300023C7F89C308023C7F8A03000236A
:101BB000C7F8A4300023C7F8A8300023C7F8AC301A
:101BC0000023C7F8B0300023C7F8B4300023C7F8AB
:101BD000B8307B681B681B68C7F8BC30D7F8BC20DE
:101BE000AB4B1340C7F8BC30BA6CFB6C1A433B6D6F
:101BF0001A437B6D1A437B689B681A43BB6D1A437B
:101C0000FB6D1A437B68DB681A433B6E1A437B6E9D
:101C10001A43BB6E1A43FB6E1A433B6F1343D7F84C
:101C2000BC201343C7F8BC307B681B68D7F8BC20C6
:101C30001A607B681B681B68C7F8BC300120FEF780
:101C4000F3FF7B681B68D7F8BC201A607B681B68B1
:101C5000796FBA6F1143FA6F1143D7F8802011439F
:101C6000D7F884201143D7F888201143D7F88C2067
:101C70001143D7F890200A435A607B681B685B6861
:101C8000C7F8BC300120FEF7CFFF7B681B68D7F890
:101C9000BC205A607B681B68D7F894209A607B68E8
:101CA0001B68D7F89820DA607B681B689B69C7F8C7
:101CB000BC30D7F8BC204FF641731340C7F8BC3096
:101CC000D7F89C301A04D7F8A0301A43D7F8A430BC
:101CD0001A43D7F8A8301A43D7F8AC301A43D7F8CC
:101CE000B0301343D7F8BC201343C7F8BC307B682F
:101CF0001B68D7F8BC209A617B681B689B69C7F892
:101D0000BC300120FEF790FF7B681B68D7F8BC2031
:101D10009A617B681B68D7F8B410D7F8B8200A43DB
:101D2000DA617B681B68DB69C7F8BC300120FEF70D
:101D30007BFF7B681B68D7F8BC20DA610023BB609F
:101D40004FF00073FB6000233B614FF400137B6195
:101D50000023BB610023FB6100233B6200237B6205
:101D60000423BB624FF00073FB624FF480333B638C
:101D70004FF480037B634FF40053BB638023FB630A
:101D800000233B6400237B647B681B6803F580535E
:101D900018331B68C7F8BC30D7F8BC203D4B134044
:101DA000C7F8BC30BA68FB681A433B691A437B69C1
:101DB0001A43BB691A43FB691A433B6A1A437B6A9D
:101DC0001A43BB6A1343D7F8BC201343C7F8BC308F
:101DD0007B681B6803F580531833D7F8BC201A6062
:101DE0007B681B6803F5805318331B68C7F8BC3049
:101DF0000120FEF719FF7B681B6803F58053183339
:101E0000D7F8BC201A607B681B68F96A3A6B1143EB
:101E10007A6B1143BA6B1143FA6B11433A6C92001F
:101E200011437A6C0A4342F4000203F580531A60AE
:101E30007B681B6803F580531B68C7F8BC30012022
:101E4000FEF7F2FE7B681B6803F58053D7F8BC20D1
:101E50001A607B689B69012B0FD17B6819687B68CE
:101E60001B6803F580531C331B6843F4803242F037
:101E7000400201F580531C331A607B685B691A4687
:101E80000021786800F008F800BFC037BD4680BD6B
:101E90000F8120FF233FDEF880B487B000AFF860E9
:101EA000B9607A607B6805331B781B027A6804325C
:101EB000127813437B61BA68104B13441A467B694E
:101EC00013607B6803331B781A067B6802331B7828
:101ED0001B041A437B6801331B781B0213437A6887
:101EE000127813437B61BA68054B13441A467B6929
:101EF000136000BF1C37BD4680BC70474080024065
:101F00004480024080B584B000AF78600023FB605D
:101F10007B681B687A681268126842F008021A60CF
:101F20007B681B681B68FB60012000F0E5F87B689C
:101F30001B68FA681A6000BF1037BD4680BD80B5C7
:101F400084B000AF78600023FB607B681B687A6810
:101F50001268126822F008021A607B681B681B680E
:101F6000FB60012000F0C8F87B681B68FA681A6003
:101F700000BF1037BD4680BD80B584B000AF78602B
:101F80000023FB607B681B687A681268126842F065
:101F900004021A607B681B681B68FB60012000F06C
:101FA000ABF87B681B68FA681A6000BF1037BD4643
:101FB00080BD80B584B000AF78600023FB607B6893
:101FC0001B687A681268126822F004021A607B6843
:101FD0001B681B68FB60012000F08EF87B681B68A3
:101FE000FA681A6000BF1037BD4680BD80B483B068
:101FF00000AF78607B6819687B681B6803F58053C5
:1020000018331B6843F4005201F5805318331A60EB
:1020100000BF0C37BD4680BC704780B483B000AFB2
:1020200078607B6819687B681B6803F580531833F8
:102030001B6823F4005201F5805318331A6000BF67
:102040000C37BD4680BC704780B483B000AF786069
:102050007B6819687B681B6803F5805318331B681D
:1020600043F0020201F5805318331A6000BF0C37A9
:10207000BD4680BC704780B483B000AF78607B6899
:1020800019687B681B6803F5805318331B6823F0BD
:10209000020201F5805318331A6000BF0C37BD46A9
:1020A00080BC704780B584B000AF78600023FB60CF
:1020B0007B6819687B681B6803F5805318331B68BD
:1020C00043F4801201F5805318331A607B681B6853
:1020D00003F5805318331B68FB60012000F00CF8F7
:1020E0007B681B68FA6803F5805318331A6000BFD9
:1020F0001037BD4680BD000080B485B000AF786069
:102100000A4B1B680A4AA2FB03235B0A7A6802FB9C
:1021100003F3FB6000BFFB685A1EFA60002BF9D185
:1021200000BF1437BD4680BC704700BF00000020D0
:10213000D34D621080B487B000AF7860396000235F
:102140007B616FE13B681A6801217B6901FA03F347
:102150001340FB60FB68002B00F061813B685B680B
:1021600003F00303012B05D03B685B6803F0030316
:10217000022B30D17B689B683B617B695B0003224B
:1021800002FA03F3DB433A6913403B613B68DA68C8
:102190007B695B0002FA03F33A6913433B617B6896
:1021A0003A699A607B685B683B6101227B6902FA4D
:1021B00003F3DB433A6913403B613B685B681B09EF
:1021C00003F001027B6902FA03F33A6913433B61AE
:1021D0007B683A695A603B685B6803F00303032B32
:1021E00017D07B68DB683B617B695B00032202FAE6
:1021F00003F3DB433A6913403B613B689A687B69B0
:102200005B0002FA03F33A6913433B617B683A6966
:10221000DA603B685B6803F00303022B23D17B6920
:10222000DA087B68083253F822303B617B6903F09F
:1022300007039B000F2202FA03F3DB433A691340C2
:102240003B613B681A697B6903F007039B0002FA54
:1022500003F33A6913433B617B69DA087B68083210
:10226000396943F822107B681B683B617B695B001E
:10227000032202FA03F3DB433A6913403B613B68F4
:102280005B6803F003027B695B0002FA03F33A69BF
:1022900013433B617B683A691A603B685B6803F4EF
:1022A0004033002B00F0BB800023BB60644A644BCA
:1022B0005B6C43F480435364614B5B6C03F4804379
:1022C000BB60BB685F4A7B699B08023352F82330CE
:1022D0003B617B6903F003039B000F2202FA03F3C7
:1022E000DB433A6913403B617B68574A934231D0E4
:1022F0007B68564A93422BD07B68554A934225D03F
:102300007B68544A93421FD07B68534A934219D04A
:102310007B68524A934213D07B68514A93420DD056
:102320007B68504A934207D07B684F4A934201D161
:10233000082310E009230EE007230CE006230AE03F
:10234000052308E0042306E0032304E0022302E05F
:10235000012300E000237A6902F003029200934017
:102360001A463B6913433B6136497B699B0802333C
:102370003A6941F823203D4B1B683B61FB68DB4316
:102380003A6913403B613B685B6803F48033002B80
:1023900003D03A69FB6813433B61344A3B691360DD
:1023A000324B5B683B61FB68DB433A6913403B613E
:1023B0003B685B6803F40033002B03D03A69FB6889
:1023C00013433B61294A3B695360284B9B683B613F
:1023D000FB68DB433A6913403B613B685B6803F48D
:1023E0008013002B03D03A69FB6813433B611F4AFB
:1023F0003B6993601D4BDB683B61FB68DB433A69DB
:1024000013403B613B685B6803F40013002B03D06F
:102410003A69FB6813433B61144A3B69D3607B69AB
:1024200001337B613B681A687B6922FA03F3002B56
:102430007FF488AE00BF1C37BD4680BC704700BF2C
:102440000038024000380140000002400004024011
:1024500000080240000C024000100240001402403C
:1024600000180240001C024000200240003C0140D5
:1024700080B485B000AF78600B467B807B681A69BA
:102480007B881340002B02D00123FB7301E0002363
:10249000FB73FB7B18461437BD4680BC704780B485
:1024A00083B000AF78600B467B8013467B707B78EF
:1024B000002B03D07A887B689A6103E07B881A043A
:1024C0007B689A6100BF0C37BD4680BC7047000036
:1024D00080B582B000AF0346FB80084B5A69FB8889
:1024E0001340002B06D0054AFB885361FB88184631
:1024F00000F006F800BF0837BD4680BD003C014033
:1025000080B483B000AF0346FB8000BF0C37BD46EC
:1025100080BC704780B58AB000AF78607B68002BC4
:1025200001D1012337E27B681B6803F00103002B14
:1025300050D0A34B9B6803F00C03042B0CD0A04B92
:102540009B6803F00C03082B12D19D4B5B6803F4CE
:102550008003B3F5800F0BD1994B1B6803F4003354
:10256000002B36D07B685B68002B32D1012312E24E
:10257000944A7B685B68DBB213707B685B68002BF6
:1025800013D0FEF747FB386208E0FEF743FB024634
:102590003B6AD31A642B01D90323FCE1884B1B68E7
:1025A00003F40033002BF0D014E0FEF733FB386265
:1025B00008E0FEF72FFB02463B6AD31A642B01D9D1
:1025C0000323E8E17E4B1B6803F40033002BF0D1BA
:1025D00000E000BF7B681B6803F00203002B77D08C
:1025E000774B9B6803F00C03002B0BD0744B9B685C
:1025F00003F00C03082B26D1714B5B6803F48003B6
:10260000002B20D16E4B1B6803F00203002B05D07A
:102610007B68DB68012B01D00123BCE16848684B73
:102620001B6823F0F8027B681B69F821B961B9695E
:1026300091FAA1F179617969B1FA81F1C9B28B405E
:102640001343036044E07B68DB68002B2AD05E4BB9
:1026500001221A60FEF7DEFA386208E0FEF7DAFAC5
:1026600002463B6AD31A022B01D9032393E1544B50
:102670001B6803F00203002BF0D05148504B1B683D
:1026800023F0F8027B681B69F8213961396991FAF6
:10269000A1F1F960F968B1FA81F1C9B28B40134335
:1026A000036015E0484B00221A60FEF7B3FA386267
:1026B00008E0FEF7AFFA02463B6AD31A022B01D9B3
:1026C000032368E13E4B1B6803F00203002BF0D1AB
:1026D0007B681B6803F00803002B30D07B685B69C4
:1026E000002B16D0394B01221A60FEF793FA38629C
:1026F00008E0FEF78FFA02463B6AD31A022B01D993
:10270000032348E12E4B5B6F03F00203002BF0D054
:1027100015E02E4B00221A60FEF77CFA386208E0C2
:10272000FEF778FA02463B6AD31A022B01D903233B
:1027300031E1234B5B6F03F00203002BF0D17B6888
:102740001B6803F00403002B00F08880002387F847
:1027500027301B4B1B6C03F08053002B10D1002340
:10276000BB60174A164B1B6C43F080531364144B29
:102770001B6C03F08053BB60BB68012387F82730D4
:10278000134A134B1B6843F480731360104B1B6890
:1027900003F48073002B23D10D4A0D4B1B6843F4C7
:1027A00080731360FEF736FA386213E0FEF732FAF0
:1027B00002463B6AD31A022B0CD90323EBE000BF7D
:1027C000003802400238024000004742800E474273
:1027D00000700040724B1B6803F48073002BE5D03F
:1027E000704A7B689B68DBB213707B689B68002B28
:1027F00015D0FEF70FFA38620AE0FEF70BFA024630
:102800003B6AD31A41F28832934201D90323C2E0D2
:10281000654B1B6F03F00203002BEED014E0FEF7B4
:10282000F9F938620AE0FEF7F5F902463B6AD31A75
:1028300041F28832934201D90323ACE05A4B1B6F1B
:1028400003F00203002BEED197F82730012B05D1BE
:10285000554A554B1B6C23F0805313647B689B696E
:10286000002B00F09780504B9B6803F00C03082B63
:1028700061D07B689B69022B46D14C4B00221A60C9
:10288000FEF7C8F9386208E0FEF7C4F902463B6A71
:10289000D31A642B01D903237DE0434B1B6803F05B
:1028A0000073002BF0D140483F4B5A68404B134017
:1028B0007A68D1697A68126A11437A68526A920119
:1028C00011437A68D26A120611437A68926A5208F2
:1028D000013A12040A4313434360344B01221A6045
:1028E000FEF798F9386208E0FEF794F902463B6A71
:1028F000D31A642B01D903234DE02B4B1B6803F043
:102900000073002BF0D045E0284B00221A60FEF740
:1029100081F9386208E0FEF77DF902463B6AD31A76
:10292000642B01D9032336E01F4B1B6803F00073AF
:10293000002BF0D12EE07B689B69012B01D1012394
:1029400029E0194B5B68FB61FB6903F480027B683B
:10295000DB699A421CD1FB6903F03F027B681B6A6A
:102960009A4215D1FB699B09C3F308027B685B6A35
:102970009A420DD1FB6903F440327B689B6A9A420C
:1029800006D1FB6903F070627B68DB6A9A4201D072
:10299000012300E0002318462837BD4680BD00BF54
:1029A000007000407038024000380240600047422A
:1029B0000080BCF080B586B000AF786039607B687D
:1029C000002B01D10123D2E06B4B1B6803F00F02F7
:1029D0003B689A420CD2684B3A68D2B21A70664B86
:1029E0001B6803F00F023B689A4201D00123BEE04E
:1029F0007B681B6803F00203002B20D07B681B68F8
:102A000003F00403002B05D05C4A5C4B9B6843F445
:102A1000E05393607B681B6803F00803002B05D02C
:102A2000564A564B9B6843F4604393605349534B5B
:102A30009B6823F0F0027B689B6813438B607B6884
:102A40001B6803F00103002B40D07B685B68012BFF
:102A500007D14A4B1B6803F40033002B15D1012327
:102A600085E07B685B68022B07D1444B1B6803F051
:102A70000073002B09D1012379E0404B1B6803F060
:102A80000203002B01D1012371E03C493B4B9B68C1
:102A900023F003027B685B6813438B60FEF7BAF890
:102AA00078610AE0FEF7B6F802467B69D31A41F274
:102AB0008832934201D9032359E0304B9B6803F0DD
:102AC0000C027B685B689B009A42EBD12A4B1B6827
:102AD00003F00F023B689A420CD9274B3A68D2B2F6
:102AE0001A70254B1B6803F00F023B689A4201D015
:102AF00001233CE07B681B6803F00403002B08D033
:102B00001E491E4B9B6823F4E0527B68DB6813432D
:102B10008B607B681B6803F00803002B09D0174902
:102B2000164B9B6823F460427B681B69DB001343F0
:102B30008B6000F02BF80146104B9B6803F0F0030C
:102B4000F0223A613A6992FAA2F2FA60FA68B2FAAD
:102B500082F2D2B2D3400A4AD35C21FA03F3094A83
:102B60001360094B1B681846FDF7C4FE0023184686
:102B70001837BD4680BD00BF003C0240003802400F
:102B8000A07E010800000020040000202DE9F04F85
:102B90008FB000AF0023FB6200237B630023BB6286
:102BA00000233B63624B9B6803F00C03042B07D0AC
:102BB000082B08D0002B40F0B2805E4B3B63B1E0A5
:102BC0005D4B3B63AEE05A4B5B6803F03F03FB6237
:102BD000574B5B6803F48003002B4ED0544B5B686B
:102BE0009B094FF0000440F2FF114FF0000201EA90
:102BF000030102EA04020B46144660017862786A17
:102C000040EAD36078625B013B62D7E908345B1A23
:102C100064EB02044FEA841949EA93694FEA831886
:102C2000B8EB030869EB04094FEAC903FB61FB69D0
:102C300043EA5873FB614FEAC803BB61D7E90689D1
:102C400018EB010849EB02094FEA49237B617B69D4
:102C500043EAD8537B614FEA48233B61D7E90489B3
:102C600040464946FB6A4FF000041A462346FDF7EA
:102C7000AFFA03460C467B6343E02D4B5B689B0930
:102C80004FF0000440F2FF114FF0000201EA03018F
:102C900002EA04020B4614466001F860F86840EA54
:102CA000D360F8605B01BB60D7E902345B1A64EB68
:102CB0000204A60146EA93669D01ED1A66EB04063E
:102CC000F3007B607B6843EA55737B60EB003B60FD
:102CD00097E860006D1846EB02064FEA862B4BEA38
:102CE000955B4FEA852A55465E4628463146FB6A83
:102CF0004FF000041A462346FDF76AFA03460C46D5
:102D00007B630B4B5B681B0C03F0030301335B001D
:102D1000BB627A6BBB6AB2FBF3F33B6302E0054B29
:102D20003B6300BF3B6B18463C37BD46BDE8F08FA8
:102D3000003802400024F40000127A0080B400AF92
:102D4000024B1B681846BD4680BC7047000000203F
:102D500080B582B000AFFFF7F1FF01460B4B9B68D7
:102D600003F460434FF460427A607A6892FAA2F208
:102D70003A603A68B2FA82F2D2B2D340044AD35CE3
:102D800021FA03F318460837BD4680BD00380240DB
:102D9000B07E010880B483B000AF786039607B6892
:102DA0000F221A60114B9B6803F003027B685A6084
:102DB0000E4B9B6803F0F0027B689A600B4B9B689C
:102DC00003F4E0527B68DA60084B9B68DB0803F48D
:102DD000E0527B681A61064B1B6803F00F023B68E8
:102DE0001A6000BF0C37BD4680BC704700380240F7
:102DF000003C024080B582B000AF78607B68002B59
:102E000001D1012341E07B6893F83D30DBB2002B18
:102E100006D17B68002283F83C20786800F039F8FE
:102E20007B68022283F83D207B681A687B68043344
:102E30001946104600F0D0F97B68012283F846203D
:102E40007B68012283F83E207B68012283F83F20C3
:102E50007B68012283F840207B68012283F84120AF
:102E60007B68012283F842207B68012283F843209B
:102E70007B68012283F844207B68012283F8452087
:102E80007B68012283F83D20002318460837BD46A1
:102E900080BD80B483B000AF786000BF0C37BD4602
:102EA00080BC704780B485B000AF78607B6893F8D1
:102EB0003D30DBB2012B01D001234EE07B680222C2
:102EC00083F83D207B681B687A681268D26842F0FC
:102ED0000102DA607B681B68224A934222D07B6839
:102EE0001B68B3F1804F1DD07B681B681E4A93425C
:102EF00018D07B681B681D4A934213D07B681B68FF
:102F00001B4A93420ED07B681B681A4A934209D031
:102F10007B681B68184A934204D07B681B68174A79
:102F2000934211D17B681B689B6803F00703FB6029
:102F3000FB68062B10D07B681B687A6812681268E1
:102F400042F001021A6007E07B681B687A68126829
:102F5000126842F001021A60002318461437BD4679
:102F600080BC7047000001400004004000080040A1
:102F7000000C0040000401400040014000180040E7
:102F800080B582B000AF78607B681B681B6903F076
:102F90000203022B22D17B681B68DB6803F002036B
:102FA000022B1BD17B681B686FF002021A617B68E1
:102FB00001221A777B681B689B6903F00303002BCF
:102FC00003D0786800F0EDF805E0786800F0E0F8EC
:102FD000786800F0EFF87B6800221A777B681B683E
:102FE0001B6903F00403042B22D17B681B68DB6898
:102FF00003F00403042B1BD17B681B686FF00402F1
:103000001A617B6802221A777B681B689B6903F44C
:103010004073002B03D0786800F0C3F805E07868AF
:1030200000F0B6F8786800F0C5F87B6800221A77DF
:103030007B681B681B6903F00803082B22D17B689F
:103040001B68DB6803F00803082B1BD17B681B6837
:103050006FF008021A617B6804221A777B681B688C
:10306000DB6903F00303002B03D0786800F099F8C4
:1030700005E0786800F08CF8786800F09BF87B68D1
:1030800000221A777B681B681B6903F01003102B62
:1030900022D17B681B68DB6803F01003102B1BD167
:1030A0007B681B686FF010021A617B6808221A7730
:1030B0007B681B68DB6903F44073002B03D07868DE
:1030C00000F06FF805E0786800F062F8786800F0CA
:1030D00071F87B6800221A777B681B681B6903F014
:1030E0000103012B0ED17B681B68DB6803F0010331
:1030F000012B07D17B681B686FF001021A617868A9
:10310000FDF7B6FB7B681B681B6903F08003802B0F
:103110000ED17B681B68DB6803F08003802B07D12E
:103120007B681B686FF080021A61786800F0FBF81A
:103130007B681B681B6903F04003402B0ED17B6842
:103140001B68DB6803F04003402B07D17B681B68DA
:103150006FF040021A61786800F035F87B681B68F0
:103160001B6903F02003202B0ED17B681B68DB68F2
:1031700003F02003202B07D17B681B686FF020022F
:103180001A61786800F0C6F800BF0837BD4680BDF8
:1031900080B483B000AF786000BF0C37BD4680BC00
:1031A000704780B483B000AF786000BF0C37BD4675
:1031B00080BC704780B483B000AF786000BF0C372C
:1031C000BD4680BC704780B483B000AF786000BF5C
:1031D0000C37BD4680BC704780B485B000AF7860C6
:1031E00039607B681B68FB607B683F4A934213D061
:1031F0007B68B3F1804F0FD07B683C4A93420BD081
:103200007B683B4A934207D07B683A4A934203D09B
:103210007B68394A934208D1FB6823F07003FB6056
:103220003B685B68FA681343FB607B682E4A9342F5
:103230002BD07B68B3F1804F27D07B682B4A934219
:1032400023D07B682A4A93421FD07B68294A934245
:103250001BD07B68284A934217D07B68274A934249
:1032600013D07B68264A93420FD07B68254A93424D
:103270000BD07B68244A934207D07B68234A934251
:1032800003D07B68224A934208D1FB6823F4407341
:10329000FB603B68DB68FA681343FB60FB6823F064
:1032A00080023B685B691343FB607B68FA681A60C5
:1032B0003B689A687B68DA623B681A687B689A6246
:1032C0007B68094A934203D07B680B4A934203D13F
:1032D0003B681A697B681A637B6801225A6100BFE8
:1032E0001437BD4680BC7047000001400004004018
:1032F00000080040000C0040000401400040014074
:10330000004401400048014000180040001C0040FB
:103310000020004080B483B000AF786000BF0C375D
:10332000BD4680BC704780B483B000AF786000BFFA
:103330000C37BD4680BC7047B0B58EB004AF9F4B14
:10334000C0221A709D4BA8225A709C4B00229A7082
:103350009A4B1422DA709A4BFF221A70984BFF2274
:103360005A70974BFF229A70954B0022DA70954B5A
:1033700000221A70934B00225A70924B00229A70CE
:10338000904B0022DA700021002006F0B3FC8B4B3A
:103390001B781A06894B5B781B041A43874B9B7872
:1033A0001B021343854AD27813431A06834B1B78BA
:1033B0001906824B5B781B041943804B9B781B02D8
:1033C0000B437E49C9780B431B0203F47F031A4366
:1033D0007A4B1B781906794B5B781B041943774BA2
:1033E0009B781B020B437549C9780B431B0A03F4F6
:1033F0007F431A43714B1B781906704B5B781B0493
:1034000019436E4B9B781B020B436C49C9780B43E5
:103410001B0E13436C4A1360694B1B781A06684BEA
:103420005B781B041A43664B9B781B021343644A68
:10343000D27813431A06624B1B781906604B5B78EF
:103440001B0419435E4B9B781B020B435C49C978F4
:103450000B431B0203F47F031A43594B1B781906D5
:10346000574B5B781B041943554B9B781B020B434E
:103470005349C9780B431B0A03F47F431A43504B4B
:103480001B7819064E4B5B781B0419434C4B9B78F9
:103490001B020B434A49C9780B431B0E13434B4A8B
:1034A0001360484B1B781A06464B5B781B041A4383
:1034B000444B9B781B021343424AD27813431A06AB
:1034C000404B1B7819063F4B5B781B0419433D4B5F
:1034D0009B781B020B433B49C9780B431B0203F447
:1034E0007F031A43374B1B781906364B5B781B0456
:1034F0001943344B9B781B020B433249C9780B4369
:103500001B0A03F47F431A432E4B1B7819062D4BDD
:103510005B781B0419432B4B9B781B020B432949F7
:10352000C9780B431B0E1343294A1360294B02939E
:10353000294B019300230093254B244A2249274815
:1035400009F004FB254809F0E3FB244B93F82F30E6
:1035500003F00403002B03D0204809F0E7FB02E04E
:103560001E4809F027FC1E491C4809F090FC002366
:103570003B6200237B6207F120030121184600F023
:1035800099FD0246174B1A60174B144A1A60154BE7
:103590001B68154A5360154B3C1D1D460FCD0FC4CB
:1035A00095E8070084E807003B1D0F49184600F026
:1035B00085FC00BF2837BD46B0BD00BFE8420020F3
:1035C000E4420020A8420020E0420020EC4200201B
:1035D000F0420020F19B00085D3C0008AC42002056
:1035E0003D3D0008F4020020A04200208054010864
:1035F00080B58EB000AF786007F1240300221A6016
:103600005A609A60DA601A617B681B68594A934273
:1036100040F0AC8000233B62574A574B1B6B43F092
:1036200000731363544B1B6B03F000733B623B6AE4
:103630000023FB61504A504B1B6B43F080631363C4
:103640004D4B1B6B03F08063FB61FB690023BB6187
:10365000494A494B1B6B43F000631363464B1B6B9A
:1036600003F00063BB61BB6900237B61424A424BAC
:103670001B6B43F0040313633F4B1B6B03F004030A
:103680007B617B6900233B613B4A3B4B1B6B43F0F7
:1036900001031363384B1B6B03F001033B613B6970
:1036A0000023FB60344A344B1B6B43F0020313636B
:1036B000314B1B6B03F00203FB60FB680023BB6014
:1036C0002D4A2D4B1B6B43F0400313632A4B1B6B9E
:1036D00003F04003BB60BB6832237B620223BB6202
:1036E0000023FB6203233B630B237B6307F124036B
:1036F00019462248FEF71EFD86237B620223BB6229
:103700000023FB6203233B630B237B6307F124034A
:1037100019461B48FEF70EFD4FF400537B6202234F
:10372000BB620023FB6203233B630B237B6307F134
:10373000240319461348FEF7FDFC4FF420537B6227
:103740000223BB620023FB6203233B630B237B63E7
:1037500007F1240319460C48FEF7ECFC0022052172
:103760003D20FDF736FB3D20FDF74FFB00BF38370E
:10377000BD4680BD00800240003802400008024083
:1037800000000240000402400018024080B582B0F0
:1037900000AF7860044B1B68184600F00DFD00BFB9
:1037A0000837BD4680BD00BFF8020020B0B590B01C
:1037B00000AF78600023BB63604B614A1A605F4BC7
:1037C00001225A605D4B4FF480429A605B4B4FF48C
:1037D0000062DA60594B00221A82002387F83030E9
:1037E000802387F83130E12387F83230002387F8CF
:1037F0003330002387F83430002387F835304F4AC0
:1038000007F1300353614D4B01229A614B4B00226B
:10381000DA614A4B4FF400021A624848FDF704FB94
:10382000034687F83F3097F83F30002B08D17B687C
:1038300093F82F3043F00403DAB27B6883F82F202B
:103840000423404A40493D48FDF77CFC04233F4A9D
:103850003F493A48FDF7DEFC7B68062283F82820C2
:10386000364B5B691A787B6883F82920334B5B6998
:103870005A787B6883F82A20304B5B699A787B689A
:1038800083F82B202D4B5B69DA787B6883F82C203A
:103890002A4B5B691A797B6883F82D20274B5B697B
:1038A0005A797B6883F82E207B6840F2DC52DA84F8
:1038B0007B6893F82F3043F00A03DAB27B6883F811
:1038C0002F200023BB620023FB6207F128030121A4
:1038D000184600F0EFFB02461E4B1A601E4B07F124
:1038E0000C041D460FCD0FC495E8070084E80700BF
:1038F00007F10C037968184600F0E0FA0F48FDF76D
:10390000ADFF07F138031A461D210C48FDF7D8FE1C
:10391000BB6B43F00B03BB63BB6B1A461D2107480F
:10392000FDF736FF07F138031A461D210348FDF75E
:10393000C7FE00BF4037BD46B0BD00BFC45B00201E
:10394000008002400C5C0020F44200207443002000
:10395000445B0020F8020020A454010880B58AB01E
:1039600000AF786039604B4BDB6A9B68FB610023DA
:103970007B6100233B610023FB600023BB60454B60
:10398000DB6ABB6100233B613B683B625AE0BB6979
:103990001B68002B03DAF82387F827305CE03B6ACA
:1039A0005B89FB600023BB602FE0FA693B69D0189C
:1039B0003B6A5A68BB68D1183B69C3F5BE630433E0
:1039C0001A4610F046FBBB69DB68BB61BB691B682C
:1039D000002B03DAF82387F827303DE0BB699B68AA
:1039E000FB613A69FB681344A3F2F453FB60BA68C5
:1039F0003B69D31A03F2F453BB607A693B69D31A6B
:103A000003F2F4537B6100233B61FA683B69134482
:103A100040F2F4529342C8D8FA693B69D0183B6A25
:103A20005A68BB681344FA68194610F012FB3A69E9
:103A3000FB6813443B617A69FB6813447B613B6A12
:103A40001B683B623B6A002BA1D179691148FDF7E5
:103A50004DFC002387F827300E4B1B6803F580537D
:103A600014331B6803F02003002B0DD0094B1B6897
:103A700003F58053143320221A60064B1B6803F5AC
:103A80008053043300221A6097F9273018462837EC
:103A9000BD4680BDC45B002080B58CB000AF7860AF
:103AA0000023FB620023BB620023FB810023FB6138
:103AB0000023BB6100237B6100233B614E48FDF77F
:103AC000FFFC0346002B01D0002391E04A4BDB6B47
:103AD000FB81494B1B6C7B62FB89002B06D0FB8969
:103AE00003221946042009F043FAF862FB6A002B0E
:103AF0004BD0414B1B6B3B620023FB61FB6ABB62FB
:103B000040E0BB6A5B897B610023BB6121E0BB6A4B
:103B10005A68BB69D0187A6AFB69D118FB69C3F58A
:103B2000BE6304331A4610F094FA3B6ADB683B62CA
:103B30003B6A9B687B62FA697B691344A3F2F45386
:103B40007B61BA69FB69D31A03F2F453BB610023AA
:103B5000FB617A69FB69134440F2F4529342D6D870
:103B6000BB6A5A68BB69D0187A6AFB6913447A69E0
:103B7000194610F06EFAFA697B691344FB61BB6A5F
:103B80001B68BB62BB6A002BBBD11B4B1B6B3B6230
:103B900000233B610BE03B6A1B6843F000423B6A39
:103BA0001A603B6ADB683B623B6901333B61124B45
:103BB0009A6B3B699A42EED80F4B00229A630E4BE8
:103BC0001B6803F5805314331B6803F08003002B3C
:103BD0000DD0094B1B6803F58053143380221A6003
:103BE000054B1B6803F58053083300221A60FB6AFB
:103BF00018463037BD4680BDC45B002080B584B018
:103C000000AF78607B68FB60124B1B684FF0FF31A0
:103C1000184600F083FA0346002BF5D10E4810F049
:103C20005BF9F868FFF738FFB860BB68002B0AD073
:103C3000FB681B69F968B86898470346002B02D0F7
:103C4000B86809F007FD044810F055F9BB68002B6F
:103C5000E4D1D9E7F80200202074002080B582B0BA
:103C600000AF78607B68002B06D10E4B40F2352206
:103C70000D490E4810F02EFA7B68732283F830202D
:103C80007B68742283F831207B68094A5A617B681B
:103C9000084A9A617868FFF789FD002318460837BB
:103CA000BD4680BDC0540108DC540108EC54010835
:103CB0003DA600085D39000880B500AFFCF7AAFFFB
:103CC0000346184680BD000080B584B000AF786020
:103CD0000023BB607B68FB6007F108031A460121E3
:103CE0001548FDF7EDFCBB6803F00403BB60FB68FF
:103CF0001B6893F82F3003F00403002B08D1BB6836
:103D0000002B05D0FB681B68184609F075F80FE01A
:103D1000FB681B6893F82F3003F00403002B07D0D7
:103D2000BB68002B04D1FB681B68184609F08FF8AC
:103D3000C82000F00FF9CFE7C45B002080B584B045
:103D400000AF78600023FB600023BB607B6893F8C2
:103D50002F3003F00403002B5BD0334B5B68002B48
:103D600040D04FF4805200212F48FDF711FDFCF7A1
:103D700051FF0346FB6007F108031A4601212A4858
:103D8000FDF79EFCFCF746FF0246FB68D31AB3F52D
:103D90007A7F26D8BB6803F02003002BEBD007F115
:103DA00008031A4610212048FDF78AFCBB6803F07F
:103DB0000403002B04D01C4B4FF40062DA6002E0D5
:103DC000194B0022DA60BB6803F00203002B03D01A
:103DD000154B00229A6014E0134B4FF480429A6016
:103DE0000FE000BF104BDB68DB089AB20E4B9B68FC
:103DF0005B089BB213439BB21A4600210A48FDF7A9
:103E0000C7FC00210848FDF787FD0748FDF726FDA0
:103E100002E00548FDF751FD786800F007F800BFA3
:103E20001037BD4680BD00BFC45B002080B483B0A6
:103E300000AF786000BF0C37BD4680BC704780B4CF
:103E400085B000AF0346FB800023FB60B7F9063066
:103E5000842B05D0B7F90620FB6813440333FB60BD
:103E6000FB6818461437BD4680BC704780B483B0E9
:103E700000AFEFF305837B607B68002B14BF012349
:103E80000023DBB218460C37BD4680BC704780B5B6
:103E900000AF02F0A3F80023184680BD80B500AF44
:103EA000FFF7E4FF0346002B03D002F0ADF9034611
:103EB00002E002F09BF90346184680BDF0B589B0D8
:103EC00004AF786039607B685B69002B20D07B6829
:103ED0009B69002B1CD07B685C687B681D687B68D5
:103EE0001E697B68B3F908301846FFF7A8FF014642
:103EF0007B685B697A6892690292019300913B68E2
:103F000032462946204601F0AFFE0346FB601CE026
:103F10007B685C687B681D687B681B699EB27B68F8
:103F2000B3F908301846FFF78AFF024607F10C0381
:103F3000019300923B6832462946204601F0EDFE8F
:103F40000346012B01D0002300E0FB68184614371C
:103F5000BD46F0BD80B584B000AF78607B68FB6083
:103F6000FB68002B01D0FB6800E00123184602F03B
:103F700001F8002318461037BD4680BD80B582B0D9
:103F800000AF78607B685B68002B07D07B685B685C
:103F90001946012001F02AF8034603E0012001F050
:103FA0000DF8034618460837BD4680BD80B584B07D
:103FB00000AF786039600023BB607B68002B01D1C3
:103FC00080233AE00023FB603B68B3F1FF3F03D15D
:103FD0004FF0FF33FB6009E03B68002B06D03B68E5
:103FE000FB60FB68002B01D10123FB60FFF73EFF64
:103FF0000346002B17D007F108031A460021786802
:1040000001F00CFC0346012B01D0FF2315E0BB6837
:10401000002B11D00B4B4FF080521A60BFF34F8F23
:10402000BFF36F8F08E0F968786801F0EFFA034694
:10403000012B01D0FF2300E0002318461037BD46B6
:1040400080BD00BF04ED00E080B584B000AF7860B3
:104050000023FB600023BB60FFF708FF0346002B33
:1040600016D007F108031946786801F069F903468C
:10407000012B01D0FF2317E0BB68002B13D00C4BA2
:104080004FF080521A60BFF34F8FBFF36F8F0AE07B
:10409000002300220021786800F0C4FF0346012BB2
:1040A00001D0FF23FB60FB6818461037BD4680BD7A
:1040B00004ED00E080B586B002AF786039607B68BF
:1040C0005B68002B10D03B68012B0BD17B685A68D2
:1040D00003230093134600220021012000F086FEF6
:1040E000034616E0002314E03B68012B10D10322A5
:1040F0000021012000F0ECFEF860FB68002B05D0E9
:10410000002300220021F86800F08CFFFB6800E02B
:10411000002318461037BD4680BD000080B584B02E
:1041200000AF786039600023BB607B68002B01D151
:1041300080233AE00023FB603B68B3F1FF3F03D1EB
:104140004FF0FF33FB6009E03B68002B06D03B6873
:10415000FB60FB68002B01D10123FB60FFF786FEAB
:104160000346002B17D007F108031A460021786890
:1041700001F054FB0346012B01D0FF2315E0BB687F
:10418000002B11D00B4B4FF080521A60BFF34F8FB2
:10419000BFF36F8F08E0F968786801F037FA0346DB
:1041A000012B01D0FF2300E0002318461037BD4645
:1041B00080BD00BF04ED00E080B584B000AF786042
:1041C0000023FB600023BB60FFF750FE0346002B7B
:1041D00016D007F108031946786801F0B1F80346D4
:1041E000012B01D0FF2317E0BB68002B13D00C4B31
:1041F0004FF080521A60BFF34F8FBFF36F8F0AE00A
:10420000002300220021786800F00CFF0346012BF8
:1042100001D0FF23FB60FB6818461037BD4680BD08
:1042200004ED00E080B582B000AF7860FFF71EFEBD
:104230000346002B01D0822303E0786801F0A2FB43
:10424000002318460837BD4680BD90B585B002AF43
:10425000786039607B689B68002B12D07B68DB68D4
:10426000002B0ED07B6818687B6859687B689A6859
:104270007B68DC6800230093234600F0B7FD03460B
:1042800008E07B6818687B685B680022194600F0CC
:104290001FFE034618460C37BD4690BD80B586B05C
:1042A00000AFF860B9607A6000233B617B687B6196
:1042B0007B69002B01D101237B61FFF7D7FD03460A
:1042C000002B18D007F1100207F108010023F8684D
:1042D00000F0A2FF0346012B01D0FF2318E03B6949
:1042E000002B14D00C4B4FF080521A60BFF34F8F4D
:1042F000BFF36F8F0BE007F1080100237A69F868BC
:1043000000F090FE0346012B01D0FF2300E00023C4
:1043100018461837BD4680BD04ED00E090B58BB05F
:1043200000AFF860B9607A60BB68FB610023BB61D5
:10433000BB68002B0AD180237B61FB681C4607F118
:10434000140393E8070084E8070054E000233B626D
:1043500000237B627B68B3F1FF3F03D14FF0FF3353
:104360007B6209E07B68002B06D07B687B627B6AFE
:10437000002B01D101237B62FFF778FD0346002B60
:104380001CD007F1200207F1140304331946B86862
:1043900001F044FA0346012B02D110237B6101E0B6
:1043A00000237B613B6A002B1DD0154B4FF08052E0
:1043B0001A60BFF34F8FBFF36F8F14E007F1140340
:1043C00004337A6A1946B86801F044F80346012BB1
:1043D00002D110237B6106E07B6A002B01D1002310
:1043E00000E040237B61FB681C4607F1140393E85F
:1043F000070084E80700F8682C37BD4690BD00BF71
:1044000004ED00E080B582B000AF7860FFF72EFDCC
:104410000346002B04D0786801F09AFA034603E0C3
:10442000786801F078FA034618460837BD4680BD23
:1044300080B582B000AF7860FFF718FD0346002B0F
:1044400001D0822303E0786801F09CFA002318462B
:104450000837BD4680BD80B483B000AF78607B680C
:1044600003F108027B685A607B684FF0FF329A6064
:104470007B6803F108027B68DA607B6803F108025D
:104480007B681A617B6800221A6000BF0C37BD464A
:1044900080BC704780B483B000AF78607B68002236
:1044A0001A6100BF0C37BD4680BC704780B485B030
:1044B00000AF786039607B685B68FB603B68FA68D6
:1044C0005A60FB689A683B689A60FB689B683A6828
:1044D0005A60FB683A689A603B687A681A617B6840
:1044E0001B685A1C7B681A6000BF1437BD4680BC2D
:1044F000704780B485B000AF786039603B681B6856
:10450000BB60BB68B3F1FF3F03D17B681B69FB60F5
:104510000CE07B680833FB6002E0FB685B68FB60D3
:10452000FB685B681A68BB689A42F6D9FB685A68F0
:104530003B685A603B685B683A689A603B68FA6817
:104540009A60FB683A685A603B687A681A617B68CF
:104550001B685A1C7B681A6000BF1437BD4680BCBC
:10456000704780B485B000AF78607B681B69FB60E2
:104570007B685B687A6892689A607B689B687A68F7
:1045800052685A60FB685A687B689A4203D17B681C
:104590009A68FB685A607B6800221A61FB681B6896
:1045A0005A1EFB681A60FB681B6818461437BD4624
:1045B00080BC704780B485B000AFF860B9607A60A5
:1045C000FB68043BFB60FB684FF080721A60FB687D
:1045D000043BFB60BB6823F00102FB681A60FB68C8
:1045E000043BFB60084AFB681A60FB68143BFB60F5
:1045F0007A68FB681A60FB68203BFB60FB68184622
:104600001437BD4680BC70470D46000880B485B0A5
:1046100000AF00237B60104B1B68B3F1FF3F09D054
:104620004FF0500383F31188BFF36F8FBFF34F8FA9
:10463000FB60FEE74FF0500383F31188BFF36F8FE9
:10464000BFF34F8FBB6000BF7B68002BFCD000BF67
:104650001437BD4680BC70470C00002000000000ED
:10466000074B19680868B0E8F00F80F30988BFF3BA
:104670006F8F4FF0000080F311884EF00D0E7047E1
:104680001C3F002000BF00BF06480068006880F3A0
:10469000088862B661B6BFF34F8FBFF36F8F00DF3C
:1046A00000BF00BF08ED00E080B584B000AF314B23
:1046B000FB60FB681B78DBB27B60FB68FF221A7033
:1046C000FB681B78DBB2FB70FB78DBB203F05003B6
:1046D000DAB2294B1A70294B07221A6009E0274BDE
:1046E0001B68013B254A1360FB78DBB25B00DBB241
:1046F000FB70FB78DBB203F08003802BEFD01F4B05
:104700001B68C3F10703042B09D04FF0500383F358
:104710001188BFF36F8FBFF34F8FBB60FEE7174B5E
:104720001B681B02154A1360144B1B6803F4E063FB
:10473000124A13607B68DAB2FB681A70104A104B99
:104740001B6843F4700313600D4A0D4B1B6843F064
:104750007043136000F0B0F80A4B00221A60FFF7B4
:1047600093FF01F01FFEFFF751FF0023184610379B
:10477000BD4680BD00E400E0FC02002000030020F4
:1047800020ED00E00C00002080B483B000AF4FF0BB
:10479000500383F31188BFF36F8FBFF34F8F7B609C
:1047A0000E4B1B6801330D4A13600C4B1B68012B29
:1047B0000ED10B4B1B68DBB2002B09D04FF050031E
:1047C00083F31188BFF36F8FBFF34F8F3B60FEE71A
:1047D00000BF0C37BD4680BC704700BF0C000020F6
:1047E00004ED00E080B483B000AF104B1B68002BD9
:1047F00009D14FF0500383F31188BFF36F8FBFF3DC
:104800004F8F7B60FEE7094B1B68013B074A136033
:10481000064B1B68002B04D100233B603B6883F3ED
:10482000118800BF0C37BD4680BC70470C000020CB
:10483000EFF30980BFF36F8F0D4B1A6820E9F00F7B
:1048400010602DE908404FF0500080F3118801F00E
:10485000A9FD4FF0000080F31188BDE808401968F9
:104860000868B0E8F00F80F30988BFF36F8F7047D6
:104870001C3F002000BF00BF80B582B000AF4FF0EA
:10488000500383F31188BFF36F8FBFF34F8F7B60AB
:1048900001F0CCFC0346002B03D0064B4FF08052B6
:1048A0001A6000233B603B6883F3118800BF083720
:1048B000BD4680BD04ED00E080B400AF0A4B00228D
:1048C0001A600A4B00221A60094A0A4B1B680A49FF
:1048D000A1FB03139B09013B1360034B07221A60E2
:1048E00000BFBD4680BC704710E000E018E000E06B
:1048F00014E000E000000020D34D621080B485B0C9
:1049000000AFEFF30583FB60FB680F2B13D9154A4B
:10491000FB6813441B78FB72134B1B78FA7A9A429C
:1049200009D24FF0500383F31188BFF36F8FBFF3A9
:104930004F8F7B60FEE70D4B1B6803F4E0620C4B6E
:104940001B689A4209D94FF0500383F31188BFF3D3
:104950006F8FBFF34F8F3B60FEE700BF1437BD463C
:1049600080BC7047F0E300E0FC0200200CED00E0AA
:104970000003002080B58AB000AF78600023FB619F
:1049800001F08AFB574B1B68002B01D100F00CF99A
:10499000554B1A687B681340002B40F08C807B6875
:1049A000002B1CD008227B6813447B607B6803F0DB
:1049B0000703002B13D07B6823F0070308337B60C9
:1049C0007B6803F00703002B09D04FF0500383F3FB
:1049D0001188BFF36F8FBFF34F8F7B61FEE77B685A
:1049E000002B68D0414B1B687A689A4263D8404BD1
:1049F0003B623F4B1B687B6204E07B6A3B627B6AE5
:104A00001B687B627B6A5A687B689A4203D27B6A26
:104A10001B68002BF1D1334B1B687A6A9A424AD04B
:104A20003B6A1B6808221344FB617B6A1A683B6A75
:104A30001A607B6A5A687B68D21A08235B009A4224
:104A40001ED97A6A7B681344BB61BB6903F0070314
:104A5000002B09D04FF0500383F31188BFF36F8F01
:104A6000BFF34F8F3B61FEE77B6A5A687B68D21ABF
:104A7000BB695A607B6A7A685A60B86900F0F6F8D8
:104A80001A4B1A687B6A5B68D31A184A1360174B73
:104A90001A68184B1B689A4203D2144B1B68154ABC
:104AA00013607B6A5A68104B1B681A437B6A5A6012
:104AB0007B6A00221A6001F0FDFAFB6903F007032C
:104AC000002B09D04FF0500383F31188BFF36F8F91
:104AD000BFF34F8FFB60FEE7FB6918462837BD46E2
:104AE00080BD00BF0C3F0020183F0020103F002079
:104AF000043F0020143F002080B586B000AF7860EE
:104B00007B687B617B68002B46D008235B427A6917
:104B100013447B617B693B613B695A68204B1B688E
:104B20001340002B09D14FF0500383F31188BFF3DA
:104B30006F8FBFF34F8FFB60FEE73B691B68002B55
:104B400009D04FF0500383F31188BFF36F8FBFF389
:104B50004F8FBB60FEE73B695A68114B1B681340DF
:104B6000002B19D03B691B68002B15D13B695A6893
:104B70000B4B1B68DB431A403B695A6001F08CFA0F
:104B80003B695A68074B1B681344064A136038692F
:104B900000F06CF801F08EFA00BF1837BD4680BDFA
:104BA000183F0020103F002080B485B000AF4FF4C4
:104BB0007053BB60274BFB60FB6803F00703002BBF
:104BC0000CD0FB680733FB60FB6823F00703FB6036
:104BD000BA68FB68D31A1F4A1344BB60FB687B604A
:104BE0001D4A7B6813601C4B00225A607A68BB68C0
:104BF0001344FB600822FB689B1AFB60FB6823F0F0
:104C00000703FB60FB68154A1360144B1B68002206
:104C10005A60124B1B6800221A607B683B603B683D
:104C2000FA68D21A3B685A600C4B1A683B681A60E3
:104C30003B685B680A4A13603B685B68094A13601B
:104C4000094B4FF000421A6000BF1437BD4680BCCC
:104C5000704700BF04030020043F00200C3F0020E9
:104C6000143F0020103F0020183F002080B485B082
:104C700000AF7860274BFB6002E0FB681B68FB60BD
:104C8000FB681A687B689A42F7D3FB68BB60FB68D5
:104C90005B68BA681A447B689A4208D1FB685A6814
:104CA0007B685B681A44FB685A60FB687B607B68C2
:104CB000BB607B685B68BA681A44FB681B689A42F1
:104CC00018D1FB681A68144B1B689A420DD07B6898
:104CD0005A68FB681B685B681A447B685A60FB680B
:104CE0001B681A687B681A6008E00B4B1A687B68BF
:104CF0001A6003E0FB681A687B681A60FA687B68D0
:104D00009A4202D0FB687A681A6000BF1437BD4629
:104D100080BC7047043F00200C3F002080B584B069
:104D200000AF786039607B68FB60FB68002B09D1BD
:104D30004FF0500383F31188BFF36F8FBFF34F8F92
:104D4000BB60FEE7FFF720FDFB681A68FB68DB6BC2
:104D5000F968096C01FB03F31A44FB685A60FB68AD
:104D600000229A63FB681A68FB689A60FB681A68FD
:104D7000FB68DB6B013BF968096C01FB03F31A4428
:104D8000FB68DA60FB68FF2283F84420FB68FF229F
:104D900083F845203B68002B14D1FB681B69002B6E
:104DA0001AD0FB681033184601F07AFB0346002B3B
:104DB00012D00D4B4FF080521A60BFF34F8FBFF3EC
:104DC0006F8F09E0FB6810331846FFF744FBFB6860
:104DD00024331846FFF73FFBFFF704FD0123184675
:104DE0001037BD4680BD00BF04ED00E080B58EB039
:104DF00002AFF860B9607A603B60FB68002B09D1B4
:104E00004FF0500383F31188BFF36F8FBFF34F8FC1
:104E1000BB62FEE73B68002B09D14FF0500383F3E0
:104E20001188BFF36F8FBFF34F8F7B62FEE77B6804
:104E3000002B02D0BB68002B01D0012300E000232F
:104E4000002B09D14FF0500383F31188BFF36F8F0C
:104E5000BFF34F8F3B62FEE77B68002B02D1BB683C
:104E6000002B01D1012300E00023002B09D14FF0DA
:104E7000500383F31188BFF36F8FBFF34F8FFB6134
:104E8000FEE748237B617B69482B09D04FF0500334
:104E900083F31188BFF36F8FBFF34F8FBB61FEE7C2
:104EA0003B68FB62FB6A002B0DD0FB6A012283F892
:104EB000462097F83820FB6A009313467A68B96851
:104EC000F86800F042F8FB6A18463037BD4680BDEE
:104ED00080B58AB002AFF860B9601346FB71FB6819
:104EE000002B09D14FF0500383F31188BFF36F8F6C
:104EF000BFF34F8F3B61FEE7BB68002B02D100235D
:104F0000FB6104E0FB68BA6802FB03F3FB61FB6929
:104F100048331846FFF72EFDB861BB69002B0FD050
:104F2000BB6948337B61BB69002283F84620FA796C
:104F3000BB69009313467A69B968F86800F005F810
:104F4000BB6918462037BD4680BD80B584B000AF30
:104F5000F860B9607A60FB70BB68002B03D1BB6955
:104F6000BA691A6002E0BB697A681A60BB69FA68BC
:104F7000DA63BB69BA681A640121B869FFF7CEFE2B
:104F800000BF1037BD4680BD80B582B000AF7860ED
:104F90007B68002B0ED07B6800225A607B68002261
:104FA0001A607B680022DA60002300220021786802
:104FB00000F038F800BF0837BD4680BD80B586B028
:104FC00000AF0346FB7101237B6100233B61FB794A
:104FD0001A4639697869FFF77BFFF860F868FFF7D0
:104FE000D3FFFB6818461837BD4680BD80B588B032
:104FF00002AF03463960FB7101237B6100233B61F3
:10500000FB7900933B68002239697869FFF7EEFE6F
:10501000F860F868FFF7B8FFFB6818461837BD4618
:1050200080BD000080B58EB000AFF860B9607A60D6
:105030003B6000237B63FB683B633B6B002B09D128
:105040004FF0500383F31188BFF36F8FBFF34F8F7F
:10505000BB62FEE7BB68002B03D13B6B1B6C002BD4
:1050600001D1012300E00023002B09D14FF05003B0
:1050700083F31188BFF36F8FBFF34F8F7B62FEE71F
:105080003B68022B03D13B6BDB6B012B01D101236E
:1050900000E00023002B09D14FF0500383F3118867
:1050A000BFF36F8FBFF34F8F3B62FEE701F0B2FBA0
:1050B0000346002B02D17B68002B01D1012300E0C5
:1050C0000023002B09D14FF0500383F31188BFF365
:1050D0006F8FBFF34F8FFB61FEE7FFF755FB3B6B15
:1050E0009A6B3B6BDB6B9A4202D33B68022B29D154
:1050F0003A68B968386B00F07EFCF8623B6B5B6A1B
:10510000002B10D03B6B2433184601F0C9F903463D
:10511000002B13D03F4B4FF080521A60BFF34F8FDC
:10512000BFF36F8F0AE0FB6A002B07D0394B4FF0BB
:1051300080521A60BFF34F8FBFF36F8FFFF752FBA0
:10514000012363E07B68002B03D1FFF74BFB0023B7
:105150005CE07B6B002B06D107F11403184601F0CD
:1051600001FA01237B63FFF73DFB00F095FFFFF79A
:105170000BFB3B6B93F844305BB2B3F1FF3F03D1C1
:105180003B6B002283F844203B6B93F845305BB2C5
:10519000B3F1FF3F03D13B6B002283F84520FFF7BB
:1051A00021FB3A1D07F114031146184601F0F0F9EE
:1051B0000346002B24D1386B00F015FD0346002B6D
:1051C00018D03B6B10337A681146184601F044F949
:1051D000386B00F0A0FC00F06DFF0346002B7FF45D
:1051E0007CAF0C4B4FF080521A60BFF34F8FBFF370
:1051F0006F8F72E7386B00F08EFC00F05BFF6CE79E
:10520000386B00F088FC00F055FF00231846383753
:10521000BD4680BD04ED00E080B58EB000AFF86003
:10522000B9607A603B60FB683B633B6B002B09D144
:105230004FF0500383F31188BFF36F8FBFF34F8F8D
:105240007B62FEE7BB68002B03D13B6B1B6C002B22
:1052500001D1012300E00023002B09D14FF05003BE
:1052600083F31188BFF36F8FBFF34F8F3B62FEE76D
:105270003B68022B03D13B6BDB6B012B01D101237C
:1052800000E00023002B09D14FF0500383F3118875
:10529000BFF36F8FBFF34F8FFB61FEE7FFF72EFB6E
:1052A000EFF311824FF0500383F31188BFF36F8F38
:1052B000BFF34F8FBA617B61BB69FB623B6B9A6B3B
:1052C0003B6BDB6B9A4202D33B68022B2CD13B6BCE
:1052D00093F8453087F82B303A68B968386B00F09E
:1052E0008AFB97F92B30B3F1FF3F12D13B6B5B6A1E
:1052F000002B16D03B6B2433184601F0D1F803463F
:10530000002B0ED07B68002B0BD07B6801221A602B
:1053100007E097F82B300133DBB25AB23B6B83F8CE
:10532000452001237B6301E000237B63FB6A3B6133
:105330003B6983F311887B6B18463837BD4680BDC7
:1053400080B58EB000AF786039607B683B633B6BA3
:10535000002B09D14FF0500383F31188BFF36F8FF7
:10536000BFF34F8F3B62FEE73B6B1B6C002B09D0FA
:105370004FF0500383F31188BFF36F8FBFF34F8F4C
:10538000FB61FEE73B6B1B68002B03D13B6B5B684B
:10539000002B01D1012300E00023002B09D14FF0A5
:1053A000500383F31188BFF36F8FBFF34F8FBB613F
:1053B000FEE7FFF7A3FAEFF311824FF0500383F3F8
:1053C0001188BFF36F8FBFF34F8F7A613B617B69A9
:1053D000FB623B6B9B6BBB623B6BDA6BBB6A9A42BB
:1053E0002BD93B6B93F8453087F82730BB6A5A1CA2
:1053F0003B6B9A6397F92730B3F1FF3F12D13B6BB8
:105400005B6A002B16D03B6B2433184601F048F83A
:105410000346002B0ED03B68002B0BD03B680122CB
:105420001A6007E097F827300133DBB25AB23B6BC2
:1054300083F8452001237B6301E000237B63FB6A43
:10544000FB60FB6883F311887B6B18463837BD46D9
:1054500080BD000080B58CB000AFF860B9607A60A4
:105460000023FB62FB68BB62BB6A002B09D14FF0D3
:10547000500383F31188BFF36F8FBFF34F8F3B62ED
:10548000FEE7BB68002B03D1BB6A1B6C002B01D16C
:10549000012300E00023002B09D14FF0500383F3D8
:1054A0001188BFF36F8FBFF34F8FFB61FEE701F0F1
:1054B000B1F90346002B02D17B68002B01D10123F7
:1054C00000E00023002B09D14FF0500383F3118833
:1054D000BFF36F8FBFF34F8FBB61FEE7FFF754F948
:1054E000BB6A9B6B7B627B6A002B1FD0B968B86A72
:1054F00000F0EBFA7B6A5A1EBB6A9A63BB6A1B69AF
:10550000002B0FD0BB6A1033184600F0C9FF0346CA
:10551000002B07D03C4B4FF080521A60BFF34F8FE7
:10552000BFF36F8FFFF75EF9012369E07B68002B03
:1055300003D1FFF757F9002362E0FB6A002B06D185
:1055400007F11003184601F00DF80123FB62FFF785
:1055500049F900F0A1FDFFF717F9BB6A93F8443051
:105560005BB2B3F1FF3F03D1BB6A002283F8442052
:10557000BB6A93F845305BB2B3F1FF3F03D1BB6A1E
:10558000002283F84520FFF72DF93A1D07F110039B
:105590001146184600F0FCFF0346002B23D1B86AE1
:1055A00000F00BFB0346002B17D0BB6A24337A684C
:1055B0001146184600F050FFB86A00F0ACFA00F04F
:1055C00079FD0346002B89D10F4B4FF080521A60B2
:1055D000BFF34F8FBFF36F8F80E7B86A00F09BFA7D
:1055E00000F068FD7AE7B86A00F095FA00F062FD15
:1055F000B86A00F0E2FA0346002B3FF46FAF0023D5
:1056000018463037BD4680BD04ED00E080B58EB051
:1056100000AF7860396000237B637B68FB62002306
:105620003B63FB6A002B09D14FF0500383F31188D1
:10563000BFF36F8FBFF34F8F3B62FEE7FB6A1B6CBC
:10564000002B09D04FF0500383F31188BFF36F8F05
:10565000BFF34F8FFB61FEE701F0DCF80346002B40
:1056600002D13B68002B01D1012300E00023002B75
:1056700009D14FF0500383F31188BFF36F8FBFF34D
:105680004F8FBB61FEE7FFF77FF8FB6A9B6BBB6246
:10569000BB6A002B24D0BB6A5A1EFB6A9A63FB6A62
:1056A0001B68002B04D101F07BFA0246FB6A5A60AA
:1056B000FB6A1B69002B0FD0FB6A1033184600F001
:1056C000EFFE0346002B07D0534B4FF080521A6079
:1056D000BFF34F8FBFF36F8FFFF784F8012396E07E
:1056E0003B68002B10D13B6B002B09D04FF05003CF
:1056F00083F31188BFF36F8FBFF34F8F7B61FEE79A
:10570000FFF770F8002382E07B6B002B06D107F1D6
:105710000C03184600F026FF01237B63FFF762F8B5
:1057200000F0BAFCFFF730F8FB6A93F844305BB244
:10573000B3F1FF3F03D1FB6A002283F84420FB6AE8
:1057400093F845305BB2B3F1FF3F03D1FB6A00220F
:1057500083F84520FFF746F83A4607F10C03114657
:10576000184600F015FF0346002B32D1F86A00F00E
:1057700024FA0346002B26D0FB6A1B68002B09D1B4
:10578000FFF702F8FB6A5B68184601F061F83863BE
:10579000FFF728F8FB6A24333A681146184600F0F0
:1057A0005BFEF86A00F0B7F900F084FC0346002BBA
:1057B0007FF469AF184B4FF080521A60BFF34F8FE0
:1057C000BFF36F8F5FE7F86A00F0A5F900F072FC95
:1057D00059E7F86A00F09FF900F06CFCF86A00F0F5
:1057E000ECF90346002B3FF44EAF3B6B002B0DD082
:1057F000FEF7CAFFF86A00F0E7F87862FB6A5B68B8
:10580000796A184601F02EF9FEF7ECFF00231846DE
:105810003837BD4680BD00BF04ED00E080B58EB0D6
:1058200000AFF860B9607A60FB683B633B6B002BAC
:1058300009D14FF0500383F31188BFF36F8FBFF38B
:105840004F8F3B62FEE7BB68002B03D13B6B1B6CA9
:10585000002B01D1012300E00023002B09D14FF0E0
:10586000500383F31188BFF36F8FBFF34F8FFB613A
:10587000FEE7FFF743F8EFF311824FF0500383F395
:105880001188BFF36F8FBFF34F8FBA617B61BB6924
:10589000FB623B6B9B6BBB62BB6A002B2FD03B6BED
:1058A00093F8443087F82730B968386B00F00DF969
:1058B000BB6A5A1E3B6B9A6397F92730B3F1FF3FDF
:1058C00012D13B6B1B69002B16D03B6B1033184673
:1058D00000F0E6FD0346002B0ED07B68002B0BD0BA
:1058E0007B6801221A6007E097F827300133DBB2AA
:1058F0005AB23B6B83F8442001237B6301E0002311
:105900007B63FB6A3B613B6983F311887B6B1846C1
:105910003837BD4680BD80B584B000AF78607B6805
:10592000002B09D14FF0500383F31188BFF36F8F21
:10593000BFF34F8FBB60FEE7FEF726FF7B689B6BD4
:10594000FB60FEF74FFFFB6818461037BD4680BD71
:1059500080B485B000AF78607B68002B09D14FF030
:10596000500383F31188BFF36F8FBFF34F8FBB607A
:10597000FEE77B689B6BFB60FB6818461437BD46EF
:1059800080BC704780B584B000AF78607B68FB60F6
:10599000FB68002B09D14FF0500383F31188BFF34C
:1059A0006F8FBFF34F8FBB60FEE7F86800F034F9EC
:1059B000FB6893F84630002B02D1F868FFF79CF89B
:1059C00000BF1037BD4680BD80B485B000AF7860A1
:1059D0007B685B6A002B06D07B681B6B1B68C3F17E
:1059E0000703FB6001E00023FB60FB6818461437E7
:1059F000BD4680BC704780B586B000AFF860B96026
:105A00007A6000237B61FB689B6B3B61FB681B6CCE
:105A1000002B0DD1FB681B68002B4DD1FB685B6828
:105A2000184600F09BFF7861FB6800225A6043E053
:105A30007B68002B19D1FB689868FB681B6C1A46C1
:105A4000B9680EF006FBFB689A68FB681B6C1A4489
:105A5000FB689A60FB689A68FB685B689A422BD384
:105A6000FB681A68FB689A6026E0FB68D868FB68E8
:105A70001B6C1A46B9680EF0ECFAFB68DA68FB6832
:105A80001B6C5B421A44FB68DA60FB68DA68FB68EF
:105A90001B689A4207D2FB685A68FB681B6C5B4222
:105AA0001A44FB68DA607B68022B05D13B69002B46
:105AB00002D03B69013B3B613B695A1CFB689A631E
:105AC0007B6918461837BD4680BD80B582B000AFEF
:105AD000786039607B681B6C002B18D07B68DA68B3
